{
  "_format": "hh-sol-artifact-1",
  "contractName": "Lock",
  "sourceName": "contracts/Lock.sol",
  "abi": [
    {
      "inputs": [],
      "stateMutability": "payable",
      "type": "constructor"
    },
    {
      "anonymous": false,
      "inputs": [
        {
          "indexed": true,
          "internalType": "address",
          "name": "previousOwner",
          "type": "address"
        },
        {
          "indexed": true,
          "internalType": "address",
          "name": "newOwner",
          "type": "address"
        }
      ],
      "name": "OwnershipTransferred",
      "type": "event"
    },
    {
      "anonymous": false,
      "inputs": [
        {
          "indexed": false,
          "internalType": "uint256",
          "name": "amount",
          "type": "uint256"
        },
        {
          "indexed": false,
          "internalType": "uint256",
          "name": "when",
          "type": "uint256"
        }
      ],
      "name": "Withdrawal",
      "type": "event"
    },
    {
      "inputs": [
        {
          "internalType": "string",
          "name": "prjName",
          "type": "string"
        },
        {
          "internalType": "uint256",
          "name": "prjId",
          "type": "uint256"
        }
      ],
      "name": "createProject",
      "outputs": [],
      "stateMutability": "payable",
      "type": "function"
    },
    {
      "inputs": [],
      "name": "deposit",
      "outputs": [],
      "stateMutability": "payable",
      "type": "function"
    },
    {
      "inputs": [],
      "name": "greet",
      "outputs": [
        {
          "internalType": "string",
          "name": "",
          "type": "string"
        }
      ],
      "stateMutability": "view",
      "type": "function"
    },
    {
      "inputs": [],
      "name": "isOwner",
      "outputs": [
        {
          "internalType": "bool",
          "name": "",
          "type": "bool"
        }
      ],
      "stateMutability": "view",
      "type": "function"
    },
    {
      "inputs": [],
      "name": "lockOwner",
      "outputs": [
        {
          "internalType": "address payable",
          "name": "",
          "type": "address"
        }
      ],
      "stateMutability": "view",
      "type": "function"
    },
    {
      "inputs": [
        {
          "internalType": "uint256",
          "name": "prjId",
          "type": "uint256"
        }
      ],
      "name": "obtainProjectDetails",
      "outputs": [
        {
          "components": [
            {
              "internalType": "string",
              "name": "projectName",
              "type": "string"
            },
            {
              "internalType": "enum Lock.ProjectState",
              "name": "projectState",
              "type": "uint8"
            },
            {
              "internalType": "address",
              "name": "projectOwner",
              "type": "address"
            },
            {
              "components": [
                {
                  "internalType": "address",
                  "name": "projectContributer",
                  "type": "address"
                },
                {
                  "internalType": "string",
                  "name": "ethAmount",
                  "type": "string"
                }
              ],
              "internalType": "struct Lock.projectUser[]",
              "name": "crowdData",
              "type": "tuple[]"
            }
          ],
          "internalType": "struct Lock.projectInfo",
          "name": "",
          "type": "tuple"
        }
      ],
      "stateMutability": "view",
      "type": "function"
    },
    {
      "inputs": [],
      "name": "owner",
      "outputs": [
        {
          "internalType": "address",
          "name": "",
          "type": "address"
        }
      ],
      "stateMutability": "view",
      "type": "function"
    },
    {
      "inputs": [
        {
          "internalType": "uint256",
          "name": "",
          "type": "uint256"
        }
      ],
      "name": "projectIds",
      "outputs": [
        {
          "internalType": "uint256",
          "name": "",
          "type": "uint256"
        }
      ],
      "stateMutability": "view",
      "type": "function"
    },
    {
      "inputs": [],
      "name": "renounceOwnership",
      "outputs": [],
      "stateMutability": "nonpayable",
      "type": "function"
    },
    {
      "inputs": [
        {
          "internalType": "string",
          "name": "_greeting",
          "type": "string"
        }
      ],
      "name": "setGreeting",
      "outputs": [],
      "stateMutability": "nonpayable",
      "type": "function"
    },
    {
      "inputs": [
        {
          "internalType": "address",
          "name": "newOwner",
          "type": "address"
        }
      ],
      "name": "transferOwnership",
      "outputs": [],
      "stateMutability": "nonpayable",
      "type": "function"
    },
    {
      "inputs": [],
      "name": "unlockTime",
      "outputs": [
        {
          "internalType": "uint256",
          "name": "",
          "type": "uint256"
        }
      ],
      "stateMutability": "view",
      "type": "function"
    },
    {
      "inputs": [
        {
          "internalType": "uint256",
          "name": "prjId",
          "type": "uint256"
        },
        {
          "internalType": "string",
          "name": "ethAdded",
          "type": "string"
        }
      ],
      "name": "updateContributerAmount",
      "outputs": [],
      "stateMutability": "payable",
      "type": "function"
    },
    {
      "inputs": [],
      "name": "withdraw",
      "outputs": [],
      "stateMutability": "nonpayable",
      "type": "function"
    }
  ],
  "bytecode": "0x6080604052336000806101000a81548173ffffffffffffffffffffffffffffffffffffffff021916908373ffffffffffffffffffffffffffffffffffffffff16021790555060008054906101000a900473ffffffffffffffffffffffffffffffffffffffff1673ffffffffffffffffffffffffffffffffffffffff16600073ffffffffffffffffffffffffffffffffffffffff167f8be0079c531659141344cd1fd0a4f28419497f9722a3daafe3b4186f6b6457e060405160405180910390a333600260006101000a81548173ffffffffffffffffffffffffffffffffffffffff021916908373ffffffffffffffffffffffffffffffffffffffff1602179055506040518060400160405280600481526020017f696e697400000000000000000000000000000000000000000000000000000000815250600390805190602001906200014d92919062000154565b5062000269565b828054620001629062000233565b90600052602060002090601f016020900481019282620001865760008555620001d2565b82601f10620001a157805160ff1916838001178555620001d2565b82800160010185558215620001d2579182015b82811115620001d1578251825591602001919060010190620001b4565b5b509050620001e19190620001e5565b5090565b5b8082111562000200576000816000905550600101620001e6565b5090565b7f4e487b7100000000000000000000000000000000000000000000000000000000600052602260045260246000fd5b600060028204905060018216806200024c57607f821691505b6020821081141562000263576200026262000204565b5b50919050565b611da380620002796000396000f3fe6080604052600436106100dd5760003560e01c806391754a5d1161007f578063cfae321711610059578063cfae32171461025a578063d0e30db014610285578063f2fde38b1461028f578063fbe96146146102b8576100dd565b806391754a5d146101f9578063a413686214610215578063b6920b8c1461023e576100dd565b806369cd61be116100bb57806369cd61be14610161578063715018a61461018c5780638da5cb5b146101a35780638f32d59b146101ce576100dd565b8063251c1aa3146100e25780633ccfd60b1461010d57806348c35ad414610124575b600080fd5b3480156100ee57600080fd5b506100f76102f5565b604051610104919061136b565b60405180910390f35b34801561011957600080fd5b506101226102fb565b005b34801561013057600080fd5b5061014b600480360381019061014691906113c6565b61040b565b604051610158919061136b565b60405180910390f35b34801561016d57600080fd5b5061017661042f565b6040516101839190611434565b60405180910390f35b34801561019857600080fd5b506101a1610455565b005b3480156101af57600080fd5b506101b8610524565b6040516101c59190611470565b60405180910390f35b3480156101da57600080fd5b506101e361054d565b6040516101f091906114a6565b60405180910390f35b610213600480360381019061020e9190611607565b6105a4565b005b34801561022157600080fd5b5061023c60048036038101906102379190611663565b6107fe565b005b610258600480360381019061025391906116ac565b6108c5565b005b34801561026657600080fd5b5061026f610be3565b60405161027c9190611790565b60405180910390f35b61028d610c75565b005b34801561029b57600080fd5b506102b660048036038101906102b191906117de565b610cba565b005b3480156102c457600080fd5b506102df60048036038101906102da91906113c6565b610cd7565b6040516102ec9190611a44565b60405180910390f35b60015481565b6103206040518060600160405280602b8152602001611d20602b913960015442610f74565b61032861054d565b610367576040517f08c379a000000000000000000000000000000000000000000000000000000000815260040161035e90611ab2565b60405180910390fd5b7fbf2ed60bd5b5965d685680c01195c9514e4382e28e3a5a2d2d5244bf59411b934742604051610398929190611ad2565b60405180910390a1600260009054906101000a900473ffffffffffffffffffffffffffffffffffffffff1673ffffffffffffffffffffffffffffffffffffffff166108fc479081150290604051600060405180830381858888f19350505050158015610408573d6000803e3d6000fd5b50565b6006818154811061041b57600080fd5b906000526020600020016000915090505481565b600260009054906101000a900473ffffffffffffffffffffffffffffffffffffffff1681565b61045d61054d565b61046657600080fd5b600073ffffffffffffffffffffffffffffffffffffffff1660008054906101000a900473ffffffffffffffffffffffffffffffffffffffff1673ffffffffffffffffffffffffffffffffffffffff167f8be0079c531659141344cd1fd0a4f28419497f9722a3daafe3b4186f6b6457e060405160405180910390a360008060006101000a81548173ffffffffffffffffffffffffffffffffffffffff021916908373ffffffffffffffffffffffffffffffffffffffff160217905550565b60008060009054906101000a900473ffffffffffffffffffffffffffffffffffffffff16905090565b60008060009054906101000a900473ffffffffffffffffffffffffffffffffffffffff1673ffffffffffffffffffffffffffffffffffffffff163373ffffffffffffffffffffffffffffffffffffffff1614905090565b6000600460008381526020019081526020016000209050828160000190805190602001906105d39291906111d2565b5060008160010160006101000a81548160ff021916908360038111156105fc576105fb611855565b5b0217905550338160010160016101000a81548173ffffffffffffffffffffffffffffffffffffffff021916908373ffffffffffffffffffffffffffffffffffffffff1602179055506000600560003373ffffffffffffffffffffffffffffffffffffffff1673ffffffffffffffffffffffffffffffffffffffff1681526020019081526020016000209050338160000160006101000a81548173ffffffffffffffffffffffffffffffffffffffff021916908373ffffffffffffffffffffffffffffffffffffffff1602179055506040518060400160405280600181526020017f31000000000000000000000000000000000000000000000000000000000000008152508160010190805190602001906107179291906111d2565b50816002018190806001815401808255809150506001900390600052602060002090600202016000909190919091506000820160009054906101000a900473ffffffffffffffffffffffffffffffffffffffff168160000160006101000a81548173ffffffffffffffffffffffffffffffffffffffff021916908373ffffffffffffffffffffffffffffffffffffffff16021790555060018201816001019080546107c190611b2a565b6107cc929190611258565b505050600683908060018154018082558091505060019003906000526020600020016000909190919091505550505050565b6108ab604051806060016040528060238152602001611d4b602391396003805461082790611b2a565b80601f016020809104026020016040519081016040528092919081815260200182805461085390611b2a565b80156108a05780601f10610875576101008083540402835291602001916108a0565b820191906000526020600020905b81548152906001019060200180831161088357829003601f168201915b505050505083611013565b80600390805190602001906108c19291906111d2565b5050565b60006004600084815260200190815260200160002090506000805b82600201805490508110156109c2573373ffffffffffffffffffffffffffffffffffffffff1683600201828154811061091c5761091b611b5c565b5b906000526020600020906002020160000160009054906101000a900473ffffffffffffffffffffffffffffffffffffffff1673ffffffffffffffffffffffffffffffffffffffff1614156109af578383600201828154811061098157610980611b5c565b5b906000526020600020906002020160010190805190602001906109a59291906111d2565b50600191506109c2565b80806109ba90611bba565b9150506108e0565b50600015158115151415610bdd576000600560003373ffffffffffffffffffffffffffffffffffffffff1673ffffffffffffffffffffffffffffffffffffffff1681526020019081526020016000206040518060400160405290816000820160009054906101000a900473ffffffffffffffffffffffffffffffffffffffff1673ffffffffffffffffffffffffffffffffffffffff1673ffffffffffffffffffffffffffffffffffffffff168152602001600182018054610a8290611b2a565b80601f0160208091040260200160405190810160405280929190818152602001828054610aae90611b2a565b8015610afb5780601f10610ad057610100808354040283529160200191610afb565b820191906000526020600020905b815481529060010190602001808311610ade57829003601f168201915b505050505081525050905033816000019073ffffffffffffffffffffffffffffffffffffffff16908173ffffffffffffffffffffffffffffffffffffffff16815250508381602001819052508260020181908060018154018082558091505060019003906000526020600020906002020160009091909190915060008201518160000160006101000a81548173ffffffffffffffffffffffffffffffffffffffff021916908373ffffffffffffffffffffffffffffffffffffffff1602179055506020820151816001019080519060200190610bd89291906111d2565b505050505b50505050565b606060038054610bf290611b2a565b80601f0160208091040260200160405190810160405280929190818152602001828054610c1e90611b2a565b8015610c6b5780601f10610c4057610100808354040283529160200191610c6b565b820191906000526020600020905b815481529060010190602001808311610c4e57829003601f168201915b5050505050905090565b60003411610cb8576040517f08c379a0000000000000000000000000000000000000000000000000000000008152600401610caf90611c75565b60405180910390fd5b565b610cc261054d565b610ccb57600080fd5b610cd4816110b2565b50565b610cdf6112e5565b600060046000848152602001908152602001600020905080604051806080016040529081600082018054610d1290611b2a565b80601f0160208091040260200160405190810160405280929190818152602001828054610d3e90611b2a565b8015610d8b5780601f10610d6057610100808354040283529160200191610d8b565b820191906000526020600020905b815481529060010190602001808311610d6e57829003601f168201915b505050505081526020016001820160009054906101000a900460ff166003811115610db957610db8611855565b5b6003811115610dcb57610dca611855565b5b81526020016001820160019054906101000a900473ffffffffffffffffffffffffffffffffffffffff1673ffffffffffffffffffffffffffffffffffffffff1673ffffffffffffffffffffffffffffffffffffffff16815260200160028201805480602002602001604051908101604052809291908181526020016000905b82821015610f6457838290600052602060002090600202016040518060400160405290816000820160009054906101000a900473ffffffffffffffffffffffffffffffffffffffff1673ffffffffffffffffffffffffffffffffffffffff1673ffffffffffffffffffffffffffffffffffffffff168152602001600182018054610ed390611b2a565b80601f0160208091040260200160405190810160405280929190818152602001828054610eff90611b2a565b8015610f4c5780601f10610f2157610100808354040283529160200191610f4c565b820191906000526020600020905b815481529060010190602001808311610f2f57829003601f168201915b50505050508152505081526020019060010190610e4a565b5050505081525050915050919050565b61100e838383604051602401610f8c93929190611c95565b6040516020818303038152906040527fca47c4eb000000000000000000000000000000000000000000000000000000007bffffffffffffffffffffffffffffffffffffffffffffffffffffffff19166020820180517bffffffffffffffffffffffffffffffffffffffffffffffffffffffff83818316178352505050506111a9565b505050565b6110ad83838360405160240161102b93929190611cd3565b6040516020818303038152906040527f2ced7cef000000000000000000000000000000000000000000000000000000007bffffffffffffffffffffffffffffffffffffffffffffffffffffffff19166020820180517bffffffffffffffffffffffffffffffffffffffffffffffffffffffff83818316178352505050506111a9565b505050565b600073ffffffffffffffffffffffffffffffffffffffff168173ffffffffffffffffffffffffffffffffffffffff1614156110ec57600080fd5b8073ffffffffffffffffffffffffffffffffffffffff1660008054906101000a900473ffffffffffffffffffffffffffffffffffffffff1673ffffffffffffffffffffffffffffffffffffffff167f8be0079c531659141344cd1fd0a4f28419497f9722a3daafe3b4186f6b6457e060405160405180910390a3806000806101000a81548173ffffffffffffffffffffffffffffffffffffffff021916908373ffffffffffffffffffffffffffffffffffffffff16021790555050565b60008151905060006a636f6e736f6c652e6c6f679050602083016000808483855afa5050505050565b8280546111de90611b2a565b90600052602060002090601f0160209004810192826112005760008555611247565b82601f1061121957805160ff1916838001178555611247565b82800160010185558215611247579182015b8281111561124657825182559160200191906001019061122b565b5b5090506112549190611335565b5090565b82805461126490611b2a565b90600052602060002090601f01602090048101928261128657600085556112d4565b82601f1061129757805485556112d4565b828001600101855582156112d457600052602060002091601f016020900482015b828111156112d35782548255916001019190600101906112b8565b5b5090506112e19190611335565b5090565b6040518060800160405280606081526020016000600381111561130b5761130a611855565b5b8152602001600073ffffffffffffffffffffffffffffffffffffffff168152602001606081525090565b5b8082111561134e576000816000905550600101611336565b5090565b6000819050919050565b61136581611352565b82525050565b6000602082019050611380600083018461135c565b92915050565b6000604051905090565b600080fd5b600080fd5b6113a381611352565b81146113ae57600080fd5b50565b6000813590506113c08161139a565b92915050565b6000602082840312156113dc576113db611390565b5b60006113ea848285016113b1565b91505092915050565b600073ffffffffffffffffffffffffffffffffffffffff82169050919050565b600061141e826113f3565b9050919050565b61142e81611413565b82525050565b60006020820190506114496000830184611425565b92915050565b600061145a826113f3565b9050919050565b61146a8161144f565b82525050565b60006020820190506114856000830184611461565b92915050565b60008115159050919050565b6114a08161148b565b82525050565b60006020820190506114bb6000830184611497565b92915050565b600080fd5b600080fd5b6000601f19601f8301169050919050565b7f4e487b7100000000000000000000000000000000000000000000000000000000600052604160045260246000fd5b611514826114cb565b810181811067ffffffffffffffff82111715611533576115326114dc565b5b80604052505050565b6000611546611386565b9050611552828261150b565b919050565b600067ffffffffffffffff821115611572576115716114dc565b5b61157b826114cb565b9050602081019050919050565b82818337600083830152505050565b60006115aa6115a584611557565b61153c565b9050828152602081018484840111156115c6576115c56114c6565b5b6115d1848285611588565b509392505050565b600082601f8301126115ee576115ed6114c1565b5b81356115fe848260208601611597565b91505092915050565b6000806040838503121561161e5761161d611390565b5b600083013567ffffffffffffffff81111561163c5761163b611395565b5b611648858286016115d9565b9250506020611659858286016113b1565b9150509250929050565b60006020828403121561167957611678611390565b5b600082013567ffffffffffffffff81111561169757611696611395565b5b6116a3848285016115d9565b91505092915050565b600080604083850312156116c3576116c2611390565b5b60006116d1858286016113b1565b925050602083013567ffffffffffffffff8111156116f2576116f1611395565b5b6116fe858286016115d9565b9150509250929050565b600081519050919050565b600082825260208201905092915050565b60005b83811015611742578082015181840152602081019050611727565b83811115611751576000848401525b50505050565b600061176282611708565b61176c8185611713565b935061177c818560208601611724565b611785816114cb565b840191505092915050565b600060208201905081810360008301526117aa8184611757565b905092915050565b6117bb8161144f565b81146117c657600080fd5b50565b6000813590506117d8816117b2565b92915050565b6000602082840312156117f4576117f3611390565b5b6000611802848285016117c9565b91505092915050565b600082825260208201905092915050565b600061182782611708565b611831818561180b565b9350611841818560208601611724565b61184a816114cb565b840191505092915050565b7f4e487b7100000000000000000000000000000000000000000000000000000000600052602160045260246000fd5b6004811061189557611894611855565b5b50565b60008190506118a682611884565b919050565b60006118b682611898565b9050919050565b6118c6816118ab565b82525050565b6118d58161144f565b82525050565b600081519050919050565b600082825260208201905092915050565b6000819050602082019050919050565b600060408301600083015161191f60008601826118cc565b5060208301518482036020860152611937828261181c565b9150508091505092915050565b60006119508383611907565b905092915050565b6000602082019050919050565b6000611970826118db565b61197a81856118e6565b93508360208202850161198c856118f7565b8060005b858110156119c857848403895281516119a98582611944565b94506119b483611958565b925060208a01995050600181019050611990565b50829750879550505050505092915050565b600060808301600083015184820360008601526119f7828261181c565b9150506020830151611a0c60208601826118bd565b506040830151611a1f60408601826118cc565b5060608301518482036060860152611a378282611965565b9150508091505092915050565b60006020820190508181036000830152611a5e81846119da565b905092915050565b7f596f75206172656e277420746865206f776e6572000000000000000000000000600082015250565b6000611a9c601483611713565b9150611aa782611a66565b602082019050919050565b60006020820190508181036000830152611acb81611a8f565b9050919050565b6000604082019050611ae7600083018561135c565b611af4602083018461135c565b9392505050565b7f4e487b7100000000000000000000000000000000000000000000000000000000600052602260045260246000fd5b60006002820490506001821680611b4257607f821691505b60208210811415611b5657611b55611afb565b5b50919050565b7f4e487b7100000000000000000000000000000000000000000000000000000000600052603260045260246000fd5b7f4e487b7100000000000000000000000000000000000000000000000000000000600052601160045260246000fd5b6000611bc582611352565b91507fffffffffffffffffffffffffffffffffffffffffffffffffffffffffffffffff821415611bf857611bf7611b8b565b5b600182019050919050565b7f43616e6e6f74206465706f736974207a65726f206f72206e656761746976652060008201527f45746865722e0000000000000000000000000000000000000000000000000000602082015250565b6000611c5f602683611713565b9150611c6a82611c03565b604082019050919050565b60006020820190508181036000830152611c8e81611c52565b9050919050565b60006060820190508181036000830152611caf8186611757565b9050611cbe602083018561135c565b611ccb604083018461135c565b949350505050565b60006060820190508181036000830152611ced8186611757565b90508181036020830152611d018185611757565b90508181036040830152611d158184611757565b905094935050505056fe556e6c6f636b2074696d6520697320256f20616e6420626c6f636b2074696d657374616d7020697320256f4368616e67696e67206772656574696e672066726f6d202725732720746f2027257327a264697066735822122012fae861b019c08b18cb373fb1de497938f4d7be712a05b6ff23d1164e4fbd9f64736f6c63430008090033",
  "linkReferences": {},
  "deployedLinkReferences": {}
}