{
  "_format": "hh-sol-artifact-1",
  "contractName": "Lock",
  "sourceName": "contracts/Lock.sol",
  "abi": [
    {
      "inputs": [],
      "stateMutability": "payable",
      "type": "constructor"
    },
    {
      "anonymous": false,
      "inputs": [
        {
          "indexed": true,
          "internalType": "address",
          "name": "previousOwner",
          "type": "address"
        },
        {
          "indexed": true,
          "internalType": "address",
          "name": "newOwner",
          "type": "address"
        }
      ],
      "name": "OwnershipTransferred",
      "type": "event"
    },
    {
      "anonymous": false,
      "inputs": [
        {
          "indexed": false,
          "internalType": "uint256",
          "name": "amount",
          "type": "uint256"
        },
        {
          "indexed": false,
          "internalType": "uint256",
          "name": "when",
          "type": "uint256"
        }
      ],
      "name": "Withdrawal",
      "type": "event"
    },
    {
      "inputs": [
        {
          "internalType": "string",
          "name": "prjName",
          "type": "string"
        },
        {
          "internalType": "uint256",
          "name": "prjId",
          "type": "uint256"
        }
      ],
      "name": "createProject",
      "outputs": [],
      "stateMutability": "payable",
      "type": "function"
    },
    {
      "inputs": [],
      "name": "deposit",
      "outputs": [],
      "stateMutability": "payable",
      "type": "function"
    },
    {
      "inputs": [],
      "name": "greet",
      "outputs": [
        {
          "internalType": "string",
          "name": "",
          "type": "string"
        }
      ],
      "stateMutability": "view",
      "type": "function"
    },
    {
      "inputs": [],
      "name": "isOwner",
      "outputs": [
        {
          "internalType": "bool",
          "name": "",
          "type": "bool"
        }
      ],
      "stateMutability": "view",
      "type": "function"
    },
    {
      "inputs": [],
      "name": "lockOwner",
      "outputs": [
        {
          "internalType": "address payable",
          "name": "",
          "type": "address"
        }
      ],
      "stateMutability": "view",
      "type": "function"
    },
    {
      "inputs": [
        {
          "internalType": "string",
          "name": "prjName",
          "type": "string"
        }
      ],
      "name": "obtainProjectDetails",
      "outputs": [
        {
          "components": [
            {
              "internalType": "string",
              "name": "projectName",
              "type": "string"
            },
            {
              "internalType": "enum Lock.ProjectState",
              "name": "projectState",
              "type": "uint8"
            },
            {
              "internalType": "address",
              "name": "projectOwner",
              "type": "address"
            },
            {
              "components": [
                {
                  "internalType": "address",
                  "name": "projectContributer",
                  "type": "address"
                },
                {
                  "internalType": "string",
                  "name": "ethAmount",
                  "type": "string"
                }
              ],
              "internalType": "struct Lock.projectUser[]",
              "name": "crowdData",
              "type": "tuple[]"
            }
          ],
          "internalType": "struct Lock.projectInfo",
          "name": "",
          "type": "tuple"
        }
      ],
      "stateMutability": "view",
      "type": "function"
    },
    {
      "inputs": [],
      "name": "owner",
      "outputs": [
        {
          "internalType": "address",
          "name": "",
          "type": "address"
        }
      ],
      "stateMutability": "view",
      "type": "function"
    },
    {
      "inputs": [
        {
          "internalType": "uint256",
          "name": "",
          "type": "uint256"
        }
      ],
      "name": "projectIds",
      "outputs": [
        {
          "internalType": "uint256",
          "name": "",
          "type": "uint256"
        }
      ],
      "stateMutability": "view",
      "type": "function"
    },
    {
      "inputs": [],
      "name": "renounceOwnership",
      "outputs": [],
      "stateMutability": "nonpayable",
      "type": "function"
    },
    {
      "inputs": [
        {
          "internalType": "string",
          "name": "_greeting",
          "type": "string"
        }
      ],
      "name": "setGreeting",
      "outputs": [],
      "stateMutability": "nonpayable",
      "type": "function"
    },
    {
      "inputs": [
        {
          "internalType": "address",
          "name": "newOwner",
          "type": "address"
        }
      ],
      "name": "transferOwnership",
      "outputs": [],
      "stateMutability": "nonpayable",
      "type": "function"
    },
    {
      "inputs": [],
      "name": "unlockTime",
      "outputs": [
        {
          "internalType": "uint256",
          "name": "",
          "type": "uint256"
        }
      ],
      "stateMutability": "view",
      "type": "function"
    },
    {
      "inputs": [
        {
          "internalType": "string",
          "name": "prjName",
          "type": "string"
        },
        {
          "internalType": "string",
          "name": "ethAdded",
          "type": "string"
        }
      ],
      "name": "updateContributerAmount",
      "outputs": [],
      "stateMutability": "payable",
      "type": "function"
    },
    {
      "inputs": [],
      "name": "withdraw",
      "outputs": [],
      "stateMutability": "nonpayable",
      "type": "function"
    }
  ],
  "bytecode": "0x6080604052336000806101000a81548173ffffffffffffffffffffffffffffffffffffffff021916908373ffffffffffffffffffffffffffffffffffffffff16021790555060008054906101000a900473ffffffffffffffffffffffffffffffffffffffff1673ffffffffffffffffffffffffffffffffffffffff16600073ffffffffffffffffffffffffffffffffffffffff167f8be0079c531659141344cd1fd0a4f28419497f9722a3daafe3b4186f6b6457e060405160405180910390a333600260006101000a81548173ffffffffffffffffffffffffffffffffffffffff021916908373ffffffffffffffffffffffffffffffffffffffff1602179055506040518060400160405280600481526020017f696e697400000000000000000000000000000000000000000000000000000000815250600390805190602001906200014d92919062000154565b5062000269565b828054620001629062000233565b90600052602060002090601f016020900481019282620001865760008555620001d2565b82601f10620001a157805160ff1916838001178555620001d2565b82800160010185558215620001d2579182015b82811115620001d1578251825591602001919060010190620001b4565b5b509050620001e19190620001e5565b5090565b5b8082111562000200576000816000905550600101620001e6565b5090565b7f4e487b7100000000000000000000000000000000000000000000000000000000600052602260045260246000fd5b600060028204905060018216806200024c57607f821691505b6020821081141562000263576200026262000204565b5b50919050565b611e3380620002796000396000f3fe6080604052600436106100dd5760003560e01c80638f32d59b1161007f578063cfae321711610059578063cfae32171461025a578063d0e30db014610285578063f2fde38b1461028f578063ff924a08146102b8576100dd565b80638f32d59b146101ea57806391754a5d14610215578063a413686214610231576100dd565b806369cd61be116100bb57806369cd61be1461016157806371062bde1461018c578063715018a6146101a85780638da5cb5b146101bf576100dd565b8063251c1aa3146100e25780633ccfd60b1461010d57806348c35ad414610124575b600080fd5b3480156100ee57600080fd5b506100f76102f5565b604051610104919061138c565b60405180910390f35b34801561011957600080fd5b506101226102fb565b005b34801561013057600080fd5b5061014b600480360381019061014691906113e7565b61040b565b604051610158919061138c565b60405180910390f35b34801561016d57600080fd5b5061017661042f565b6040516101839190611455565b60405180910390f35b6101a660048036038101906101a191906115b6565b610455565b005b3480156101b457600080fd5b506101bd61077e565b005b3480156101cb57600080fd5b506101d461084d565b6040516101e1919061164f565b60405180910390f35b3480156101f657600080fd5b506101ff610876565b60405161020c9190611685565b60405180910390f35b61022f600480360381019061022a91906116a0565b6108cd565b005b34801561023d57600080fd5b50610258600480360381019061025391906116fc565b610b32565b005b34801561026657600080fd5b5061026f610bf9565b60405161027c91906117cd565b60405180910390f35b61028d610c8b565b005b34801561029b57600080fd5b506102b660048036038101906102b1919061181b565b610cd0565b005b3480156102c457600080fd5b506102df60048036038101906102da91906116fc565b610ced565b6040516102ec9190611a81565b60405180910390f35b60015481565b6103206040518060600160405280602b8152602001611db0602b913960015442610f95565b610328610876565b610367576040517f08c379a000000000000000000000000000000000000000000000000000000000815260040161035e90611aef565b60405180910390fd5b7fbf2ed60bd5b5965d685680c01195c9514e4382e28e3a5a2d2d5244bf59411b934742604051610398929190611b0f565b60405180910390a1600260009054906101000a900473ffffffffffffffffffffffffffffffffffffffff1673ffffffffffffffffffffffffffffffffffffffff166108fc479081150290604051600060405180830381858888f19350505050158015610408573d6000803e3d6000fd5b50565b6006818154811061041b57600080fd5b906000526020600020016000915090505481565b600260009054906101000a900473ffffffffffffffffffffffffffffffffffffffff1681565b60006004836040516104679190611b74565b908152602001604051809103902090506000805b826002018054905081101561055d573373ffffffffffffffffffffffffffffffffffffffff168360020182815481106104b7576104b6611b8b565b5b906000526020600020906002020160000160009054906101000a900473ffffffffffffffffffffffffffffffffffffffff1673ffffffffffffffffffffffffffffffffffffffff16141561054a578383600201828154811061051c5761051b611b8b565b5b906000526020600020906002020160010190805190602001906105409291906111f3565b506001915061055d565b808061055590611be9565b91505061047b565b50600015158115151415610778576000600560003373ffffffffffffffffffffffffffffffffffffffff1673ffffffffffffffffffffffffffffffffffffffff1681526020019081526020016000206040518060400160405290816000820160009054906101000a900473ffffffffffffffffffffffffffffffffffffffff1673ffffffffffffffffffffffffffffffffffffffff1673ffffffffffffffffffffffffffffffffffffffff16815260200160018201805461061d90611c61565b80601f016020809104026020016040519081016040528092919081815260200182805461064990611c61565b80156106965780601f1061066b57610100808354040283529160200191610696565b820191906000526020600020905b81548152906001019060200180831161067957829003601f168201915b505050505081525050905033816000019073ffffffffffffffffffffffffffffffffffffffff16908173ffffffffffffffffffffffffffffffffffffffff16815250508381602001819052508260020181908060018154018082558091505060019003906000526020600020906002020160009091909190915060008201518160000160006101000a81548173ffffffffffffffffffffffffffffffffffffffff021916908373ffffffffffffffffffffffffffffffffffffffff16021790555060208201518160010190805190602001906107739291906111f3565b505050505b50505050565b610786610876565b61078f57600080fd5b600073ffffffffffffffffffffffffffffffffffffffff1660008054906101000a900473ffffffffffffffffffffffffffffffffffffffff1673ffffffffffffffffffffffffffffffffffffffff167f8be0079c531659141344cd1fd0a4f28419497f9722a3daafe3b4186f6b6457e060405160405180910390a360008060006101000a81548173ffffffffffffffffffffffffffffffffffffffff021916908373ffffffffffffffffffffffffffffffffffffffff160217905550565b60008060009054906101000a900473ffffffffffffffffffffffffffffffffffffffff16905090565b60008060009054906101000a900473ffffffffffffffffffffffffffffffffffffffff1673ffffffffffffffffffffffffffffffffffffffff163373ffffffffffffffffffffffffffffffffffffffff1614905090565b60006004836040516108df9190611b74565b90815260200160405180910390209050828160000190805190602001906109079291906111f3565b5060008160010160006101000a81548160ff021916908360038111156109305761092f611892565b5b0217905550338160010160016101000a81548173ffffffffffffffffffffffffffffffffffffffff021916908373ffffffffffffffffffffffffffffffffffffffff1602179055506000600560003373ffffffffffffffffffffffffffffffffffffffff1673ffffffffffffffffffffffffffffffffffffffff1681526020019081526020016000209050338160000160006101000a81548173ffffffffffffffffffffffffffffffffffffffff021916908373ffffffffffffffffffffffffffffffffffffffff1602179055506040518060400160405280600181526020017f3100000000000000000000000000000000000000000000000000000000000000815250816001019080519060200190610a4b9291906111f3565b50816002018190806001815401808255809150506001900390600052602060002090600202016000909190919091506000820160009054906101000a900473ffffffffffffffffffffffffffffffffffffffff168160000160006101000a81548173ffffffffffffffffffffffffffffffffffffffff021916908373ffffffffffffffffffffffffffffffffffffffff1602179055506001820181600101908054610af590611c61565b610b00929190611279565b505050600683908060018154018082558091505060019003906000526020600020016000909190919091505550505050565b610bdf604051806060016040528060238152602001611ddb6023913960038054610b5b90611c61565b80601f0160208091040260200160405190810160405280929190818152602001828054610b8790611c61565b8015610bd45780601f10610ba957610100808354040283529160200191610bd4565b820191906000526020600020905b815481529060010190602001808311610bb757829003601f168201915b505050505083611034565b8060039080519060200190610bf59291906111f3565b5050565b606060038054610c0890611c61565b80601f0160208091040260200160405190810160405280929190818152602001828054610c3490611c61565b8015610c815780601f10610c5657610100808354040283529160200191610c81565b820191906000526020600020905b815481529060010190602001808311610c6457829003601f168201915b5050505050905090565b60003411610cce576040517f08c379a0000000000000000000000000000000000000000000000000000000008152600401610cc590611d05565b60405180910390fd5b565b610cd8610876565b610ce157600080fd5b610cea816110d3565b50565b610cf5611306565b6000600483604051610d079190611b74565b9081526020016040518091039020905080604051806080016040529081600082018054610d3390611c61565b80601f0160208091040260200160405190810160405280929190818152602001828054610d5f90611c61565b8015610dac5780601f10610d8157610100808354040283529160200191610dac565b820191906000526020600020905b815481529060010190602001808311610d8f57829003601f168201915b505050505081526020016001820160009054906101000a900460ff166003811115610dda57610dd9611892565b5b6003811115610dec57610deb611892565b5b81526020016001820160019054906101000a900473ffffffffffffffffffffffffffffffffffffffff1673ffffffffffffffffffffffffffffffffffffffff1673ffffffffffffffffffffffffffffffffffffffff16815260200160028201805480602002602001604051908101604052809291908181526020016000905b82821015610f8557838290600052602060002090600202016040518060400160405290816000820160009054906101000a900473ffffffffffffffffffffffffffffffffffffffff1673ffffffffffffffffffffffffffffffffffffffff1673ffffffffffffffffffffffffffffffffffffffff168152602001600182018054610ef490611c61565b80601f0160208091040260200160405190810160405280929190818152602001828054610f2090611c61565b8015610f6d5780601f10610f4257610100808354040283529160200191610f6d565b820191906000526020600020905b815481529060010190602001808311610f5057829003601f168201915b50505050508152505081526020019060010190610e6b565b5050505081525050915050919050565b61102f838383604051602401610fad93929190611d25565b6040516020818303038152906040527fca47c4eb000000000000000000000000000000000000000000000000000000007bffffffffffffffffffffffffffffffffffffffffffffffffffffffff19166020820180517bffffffffffffffffffffffffffffffffffffffffffffffffffffffff83818316178352505050506111ca565b505050565b6110ce83838360405160240161104c93929190611d63565b6040516020818303038152906040527f2ced7cef000000000000000000000000000000000000000000000000000000007bffffffffffffffffffffffffffffffffffffffffffffffffffffffff19166020820180517bffffffffffffffffffffffffffffffffffffffffffffffffffffffff83818316178352505050506111ca565b505050565b600073ffffffffffffffffffffffffffffffffffffffff168173ffffffffffffffffffffffffffffffffffffffff16141561110d57600080fd5b8073ffffffffffffffffffffffffffffffffffffffff1660008054906101000a900473ffffffffffffffffffffffffffffffffffffffff1673ffffffffffffffffffffffffffffffffffffffff167f8be0079c531659141344cd1fd0a4f28419497f9722a3daafe3b4186f6b6457e060405160405180910390a3806000806101000a81548173ffffffffffffffffffffffffffffffffffffffff021916908373ffffffffffffffffffffffffffffffffffffffff16021790555050565b60008151905060006a636f6e736f6c652e6c6f679050602083016000808483855afa5050505050565b8280546111ff90611c61565b90600052602060002090601f0160209004810192826112215760008555611268565b82601f1061123a57805160ff1916838001178555611268565b82800160010185558215611268579182015b8281111561126757825182559160200191906001019061124c565b5b5090506112759190611356565b5090565b82805461128590611c61565b90600052602060002090601f0160209004810192826112a757600085556112f5565b82601f106112b857805485556112f5565b828001600101855582156112f557600052602060002091601f016020900482015b828111156112f45782548255916001019190600101906112d9565b5b5090506113029190611356565b5090565b6040518060800160405280606081526020016000600381111561132c5761132b611892565b5b8152602001600073ffffffffffffffffffffffffffffffffffffffff168152602001606081525090565b5b8082111561136f576000816000905550600101611357565b5090565b6000819050919050565b61138681611373565b82525050565b60006020820190506113a1600083018461137d565b92915050565b6000604051905090565b600080fd5b600080fd5b6113c481611373565b81146113cf57600080fd5b50565b6000813590506113e1816113bb565b92915050565b6000602082840312156113fd576113fc6113b1565b5b600061140b848285016113d2565b91505092915050565b600073ffffffffffffffffffffffffffffffffffffffff82169050919050565b600061143f82611414565b9050919050565b61144f81611434565b82525050565b600060208201905061146a6000830184611446565b92915050565b600080fd5b600080fd5b6000601f19601f8301169050919050565b7f4e487b7100000000000000000000000000000000000000000000000000000000600052604160045260246000fd5b6114c38261147a565b810181811067ffffffffffffffff821117156114e2576114e161148b565b5b80604052505050565b60006114f56113a7565b905061150182826114ba565b919050565b600067ffffffffffffffff8211156115215761152061148b565b5b61152a8261147a565b9050602081019050919050565b82818337600083830152505050565b600061155961155484611506565b6114eb565b90508281526020810184848401111561157557611574611475565b5b611580848285611537565b509392505050565b600082601f83011261159d5761159c611470565b5b81356115ad848260208601611546565b91505092915050565b600080604083850312156115cd576115cc6113b1565b5b600083013567ffffffffffffffff8111156115eb576115ea6113b6565b5b6115f785828601611588565b925050602083013567ffffffffffffffff811115611618576116176113b6565b5b61162485828601611588565b9150509250929050565b600061163982611414565b9050919050565b6116498161162e565b82525050565b60006020820190506116646000830184611640565b92915050565b60008115159050919050565b61167f8161166a565b82525050565b600060208201905061169a6000830184611676565b92915050565b600080604083850312156116b7576116b66113b1565b5b600083013567ffffffffffffffff8111156116d5576116d46113b6565b5b6116e185828601611588565b92505060206116f2858286016113d2565b9150509250929050565b600060208284031215611712576117116113b1565b5b600082013567ffffffffffffffff8111156117305761172f6113b6565b5b61173c84828501611588565b91505092915050565b600081519050919050565b600082825260208201905092915050565b60005b8381101561177f578082015181840152602081019050611764565b8381111561178e576000848401525b50505050565b600061179f82611745565b6117a98185611750565b93506117b9818560208601611761565b6117c28161147a565b840191505092915050565b600060208201905081810360008301526117e78184611794565b905092915050565b6117f88161162e565b811461180357600080fd5b50565b600081359050611815816117ef565b92915050565b600060208284031215611831576118306113b1565b5b600061183f84828501611806565b91505092915050565b600082825260208201905092915050565b600061186482611745565b61186e8185611848565b935061187e818560208601611761565b6118878161147a565b840191505092915050565b7f4e487b7100000000000000000000000000000000000000000000000000000000600052602160045260246000fd5b600481106118d2576118d1611892565b5b50565b60008190506118e3826118c1565b919050565b60006118f3826118d5565b9050919050565b611903816118e8565b82525050565b6119128161162e565b82525050565b600081519050919050565b600082825260208201905092915050565b6000819050602082019050919050565b600060408301600083015161195c6000860182611909565b50602083015184820360208601526119748282611859565b9150508091505092915050565b600061198d8383611944565b905092915050565b6000602082019050919050565b60006119ad82611918565b6119b78185611923565b9350836020820285016119c985611934565b8060005b85811015611a0557848403895281516119e68582611981565b94506119f183611995565b925060208a019950506001810190506119cd565b50829750879550505050505092915050565b60006080830160008301518482036000860152611a348282611859565b9150506020830151611a4960208601826118fa565b506040830151611a5c6040860182611909565b5060608301518482036060860152611a7482826119a2565b9150508091505092915050565b60006020820190508181036000830152611a9b8184611a17565b905092915050565b7f596f75206172656e277420746865206f776e6572000000000000000000000000600082015250565b6000611ad9601483611750565b9150611ae482611aa3565b602082019050919050565b60006020820190508181036000830152611b0881611acc565b9050919050565b6000604082019050611b24600083018561137d565b611b31602083018461137d565b9392505050565b600081905092915050565b6000611b4e82611745565b611b588185611b38565b9350611b68818560208601611761565b80840191505092915050565b6000611b808284611b43565b915081905092915050565b7f4e487b7100000000000000000000000000000000000000000000000000000000600052603260045260246000fd5b7f4e487b7100000000000000000000000000000000000000000000000000000000600052601160045260246000fd5b6000611bf482611373565b91507fffffffffffffffffffffffffffffffffffffffffffffffffffffffffffffffff821415611c2757611c26611bba565b5b600182019050919050565b7f4e487b7100000000000000000000000000000000000000000000000000000000600052602260045260246000fd5b60006002820490506001821680611c7957607f821691505b60208210811415611c8d57611c8c611c32565b5b50919050565b7f43616e6e6f74206465706f736974207a65726f206f72206e656761746976652060008201527f45746865722e0000000000000000000000000000000000000000000000000000602082015250565b6000611cef602683611750565b9150611cfa82611c93565b604082019050919050565b60006020820190508181036000830152611d1e81611ce2565b9050919050565b60006060820190508181036000830152611d3f8186611794565b9050611d4e602083018561137d565b611d5b604083018461137d565b949350505050565b60006060820190508181036000830152611d7d8186611794565b90508181036020830152611d918185611794565b90508181036040830152611da58184611794565b905094935050505056fe556e6c6f636b2074696d6520697320256f20616e6420626c6f636b2074696d657374616d7020697320256f4368616e67696e67206772656574696e672066726f6d202725732720746f2027257327a2646970667358221220214cbdc1408a18f7231e1539fb7f9737a32acd72779a388293865eb2e05ced5a64736f6c63430008090033",
  "linkReferences": {},
  "deployedLinkReferences": {}
}