{
  "_format": "hh-sol-artifact-1",
  "contractName": "Lock",
  "sourceName": "contracts/Lock.sol",
  "abi": [
    {
      "inputs": [],
      "stateMutability": "payable",
      "type": "constructor"
    },
    {
      "anonymous": false,
      "inputs": [
        {
          "indexed": true,
          "internalType": "address",
          "name": "previousOwner",
          "type": "address"
        },
        {
          "indexed": true,
          "internalType": "address",
          "name": "newOwner",
          "type": "address"
        }
      ],
      "name": "OwnershipTransferred",
      "type": "event"
    },
    {
      "anonymous": false,
      "inputs": [
        {
          "indexed": false,
          "internalType": "uint256",
          "name": "amount",
          "type": "uint256"
        },
        {
          "indexed": false,
          "internalType": "uint256",
          "name": "when",
          "type": "uint256"
        }
      ],
      "name": "Withdrawal",
      "type": "event"
    },
    {
      "inputs": [
        {
          "internalType": "string",
          "name": "prjName",
          "type": "string"
        },
        {
          "internalType": "uint256",
          "name": "prjId",
          "type": "uint256"
        }
      ],
      "name": "createProject",
      "outputs": [],
      "stateMutability": "payable",
      "type": "function"
    },
    {
      "inputs": [],
      "name": "greet",
      "outputs": [
        {
          "internalType": "string",
          "name": "",
          "type": "string"
        }
      ],
      "stateMutability": "view",
      "type": "function"
    },
    {
      "inputs": [],
      "name": "isOwner",
      "outputs": [
        {
          "internalType": "bool",
          "name": "",
          "type": "bool"
        }
      ],
      "stateMutability": "view",
      "type": "function"
    },
    {
      "inputs": [],
      "name": "lockOwner",
      "outputs": [
        {
          "internalType": "address payable",
          "name": "",
          "type": "address"
        }
      ],
      "stateMutability": "view",
      "type": "function"
    },
    {
      "inputs": [
        {
          "internalType": "uint256",
          "name": "prjId",
          "type": "uint256"
        }
      ],
      "name": "obtainProjectDetails",
      "outputs": [
        {
          "components": [
            {
              "internalType": "string",
              "name": "projectName",
              "type": "string"
            },
            {
              "internalType": "enum Lock.ProjectState",
              "name": "projectState",
              "type": "uint8"
            },
            {
              "internalType": "address",
              "name": "projectOwner",
              "type": "address"
            },
            {
              "components": [
                {
                  "internalType": "address",
                  "name": "projectContributer",
                  "type": "address"
                },
                {
                  "internalType": "string",
                  "name": "ethAmount",
                  "type": "string"
                }
              ],
              "internalType": "struct Lock.projectUser[]",
              "name": "crowdData",
              "type": "tuple[]"
            }
          ],
          "internalType": "struct Lock.projectInfo",
          "name": "",
          "type": "tuple"
        }
      ],
      "stateMutability": "view",
      "type": "function"
    },
    {
      "inputs": [],
      "name": "owner",
      "outputs": [
        {
          "internalType": "address",
          "name": "",
          "type": "address"
        }
      ],
      "stateMutability": "view",
      "type": "function"
    },
    {
      "inputs": [
        {
          "internalType": "uint256",
          "name": "",
          "type": "uint256"
        }
      ],
      "name": "projectIds",
      "outputs": [
        {
          "internalType": "uint256",
          "name": "",
          "type": "uint256"
        }
      ],
      "stateMutability": "view",
      "type": "function"
    },
    {
      "inputs": [],
      "name": "renounceOwnership",
      "outputs": [],
      "stateMutability": "nonpayable",
      "type": "function"
    },
    {
      "inputs": [
        {
          "internalType": "string",
          "name": "_greeting",
          "type": "string"
        }
      ],
      "name": "setGreeting",
      "outputs": [],
      "stateMutability": "nonpayable",
      "type": "function"
    },
    {
      "inputs": [
        {
          "internalType": "address",
          "name": "newOwner",
          "type": "address"
        }
      ],
      "name": "transferOwnership",
      "outputs": [],
      "stateMutability": "nonpayable",
      "type": "function"
    },
    {
      "inputs": [],
      "name": "unlockTime",
      "outputs": [
        {
          "internalType": "uint256",
          "name": "",
          "type": "uint256"
        }
      ],
      "stateMutability": "view",
      "type": "function"
    },
    {
      "inputs": [
        {
          "internalType": "uint256",
          "name": "prjId",
          "type": "uint256"
        },
        {
          "internalType": "string",
          "name": "ethAdded",
          "type": "string"
        }
      ],
      "name": "updateContributerAmount",
      "outputs": [],
      "stateMutability": "payable",
      "type": "function"
    },
    {
      "inputs": [],
      "name": "withdraw",
      "outputs": [],
      "stateMutability": "nonpayable",
      "type": "function"
    }
  ],
  "bytecode": "0x6080604052336000806101000a81548173ffffffffffffffffffffffffffffffffffffffff021916908373ffffffffffffffffffffffffffffffffffffffff16021790555060008054906101000a900473ffffffffffffffffffffffffffffffffffffffff1673ffffffffffffffffffffffffffffffffffffffff16600073ffffffffffffffffffffffffffffffffffffffff167f8be0079c531659141344cd1fd0a4f28419497f9722a3daafe3b4186f6b6457e060405160405180910390a333600260006101000a81548173ffffffffffffffffffffffffffffffffffffffff021916908373ffffffffffffffffffffffffffffffffffffffff1602179055506040518060400160405280600481526020017f696e69740000000000000000000000000000000000000000000000000000000081525060039081620001469190620003c7565b50620004ae565b600081519050919050565b7f4e487b7100000000000000000000000000000000000000000000000000000000600052604160045260246000fd5b7f4e487b7100000000000000000000000000000000000000000000000000000000600052602260045260246000fd5b60006002820490506001821680620001cf57607f821691505b602082108103620001e557620001e462000187565b5b50919050565b60008190508160005260206000209050919050565b60006020601f8301049050919050565b600082821b905092915050565b6000600883026200024f7fffffffffffffffffffffffffffffffffffffffffffffffffffffffffffffffff8262000210565b6200025b868362000210565b95508019841693508086168417925050509392505050565b6000819050919050565b6000819050919050565b6000620002a8620002a26200029c8462000273565b6200027d565b62000273565b9050919050565b6000819050919050565b620002c48362000287565b620002dc620002d382620002af565b8484546200021d565b825550505050565b600090565b620002f3620002e4565b62000300818484620002b9565b505050565b5b8181101562000328576200031c600082620002e9565b60018101905062000306565b5050565b601f82111562000377576200034181620001eb565b6200034c8462000200565b810160208510156200035c578190505b620003746200036b8562000200565b83018262000305565b50505b505050565b600082821c905092915050565b60006200039c600019846008026200037c565b1980831691505092915050565b6000620003b7838362000389565b9150826002028217905092915050565b620003d2826200014d565b67ffffffffffffffff811115620003ee57620003ed62000158565b5b620003fa8254620001b6565b620004078282856200032c565b600060209050601f8311600181146200043f57600084156200042a578287015190505b620004368582620003a9565b865550620004a6565b601f1984166200044f86620001eb565b60005b82811015620004795784890151825560018201915060208501945060208101905062000452565b8683101562000499578489015162000495601f89168262000389565b8355505b6001600288020188555050505b505050505050565b611eb780620004be6000396000f3fe6080604052600436106100c25760003560e01c80638f32d59b1161007f578063b6920b8c11610059578063b6920b8c14610223578063cfae32171461023f578063f2fde38b1461026a578063fbe9614614610293576100c2565b80638f32d59b146101b357806391754a5d146101de578063a4136862146101fa576100c2565b8063251c1aa3146100c75780633ccfd60b146100f257806348c35ad41461010957806369cd61be14610146578063715018a6146101715780638da5cb5b14610188575b600080fd5b3480156100d357600080fd5b506100dc6102d0565b6040516100e991906111a0565b60405180910390f35b3480156100fe57600080fd5b506101076102d6565b005b34801561011557600080fd5b50610130600480360381019061012b91906111fb565b6103e6565b60405161013d91906111a0565b60405180910390f35b34801561015257600080fd5b5061015b61040a565b6040516101689190611269565b60405180910390f35b34801561017d57600080fd5b50610186610430565b005b34801561019457600080fd5b5061019d6104ff565b6040516101aa91906112a5565b60405180910390f35b3480156101bf57600080fd5b506101c8610528565b6040516101d591906112db565b60405180910390f35b6101f860048036038101906101f3919061143c565b61057f565b005b34801561020657600080fd5b50610221600480360381019061021c9190611498565b6107c0565b005b61023d600480360381019061023891906114e1565b610880565b005b34801561024b57600080fd5b50610254610b8e565b60405161026191906115bc565b60405180910390f35b34801561027657600080fd5b50610291600480360381019061028c919061160a565b610c20565b005b34801561029f57600080fd5b506102ba60048036038101906102b591906111fb565b610c3d565b6040516102c79190611870565b60405180910390f35b60015481565b6102fb6040518060600160405280602b8152602001611e34602b913960015442610eda565b610303610528565b610342576040517f08c379a0000000000000000000000000000000000000000000000000000000008152600401610339906118de565b60405180910390fd5b7fbf2ed60bd5b5965d685680c01195c9514e4382e28e3a5a2d2d5244bf59411b9347426040516103739291906118fe565b60405180910390a1600260009054906101000a900473ffffffffffffffffffffffffffffffffffffffff1673ffffffffffffffffffffffffffffffffffffffff166108fc479081150290604051600060405180830381858888f193505050501580156103e3573d6000803e3d6000fd5b50565b600681815481106103f657600080fd5b906000526020600020016000915090505481565b600260009054906101000a900473ffffffffffffffffffffffffffffffffffffffff1681565b610438610528565b61044157600080fd5b600073ffffffffffffffffffffffffffffffffffffffff1660008054906101000a900473ffffffffffffffffffffffffffffffffffffffff1673ffffffffffffffffffffffffffffffffffffffff167f8be0079c531659141344cd1fd0a4f28419497f9722a3daafe3b4186f6b6457e060405160405180910390a360008060006101000a81548173ffffffffffffffffffffffffffffffffffffffff021916908373ffffffffffffffffffffffffffffffffffffffff160217905550565b60008060009054906101000a900473ffffffffffffffffffffffffffffffffffffffff16905090565b60008060009054906101000a900473ffffffffffffffffffffffffffffffffffffffff1673ffffffffffffffffffffffffffffffffffffffff163373ffffffffffffffffffffffffffffffffffffffff1614905090565b6000600460008381526020019081526020016000209050828160000190816105a79190611b33565b5060008160010160006101000a81548160ff021916908360038111156105d0576105cf611681565b5b0217905550338160010160016101000a81548173ffffffffffffffffffffffffffffffffffffffff021916908373ffffffffffffffffffffffffffffffffffffffff1602179055506000600560003373ffffffffffffffffffffffffffffffffffffffff1673ffffffffffffffffffffffffffffffffffffffff1681526020019081526020016000209050338160000160006101000a81548173ffffffffffffffffffffffffffffffffffffffff021916908373ffffffffffffffffffffffffffffffffffffffff1602179055506040518060400160405280600181526020017f31000000000000000000000000000000000000000000000000000000000000008152508160010190816106e49190611b33565b50816002018190806001815401808255809150506001900390600052602060002090600202016000909190919091506000820160009054906101000a900473ffffffffffffffffffffffffffffffffffffffff168160000160006101000a81548173ffffffffffffffffffffffffffffffffffffffff021916908373ffffffffffffffffffffffffffffffffffffffff1602179055506001820181600101908161078e9190611c1b565b505050600683908060018154018082558091505060019003906000526020600020016000909190919091505550505050565b61086d604051806060016040528060238152602001611e5f60239139600380546107e990611956565b80601f016020809104026020016040519081016040528092919081815260200182805461081590611956565b80156108625780601f1061083757610100808354040283529160200191610862565b820191906000526020600020905b81548152906001019060200180831161084557829003601f168201915b505050505083610f79565b806003908161087c9190611b33565b5050565b60006004600084815260200190815260200160002090506000805b8260020180549050811015610975573373ffffffffffffffffffffffffffffffffffffffff168360020182815481106108d7576108d6611d03565b5b906000526020600020906002020160000160009054906101000a900473ffffffffffffffffffffffffffffffffffffffff1673ffffffffffffffffffffffffffffffffffffffff1603610962578383600201828154811061093b5761093a611d03565b5b906000526020600020906002020160010190816109589190611b33565b5060019150610975565b808061096d90611d61565b91505061089b565b506000151581151503610b88576000600560003373ffffffffffffffffffffffffffffffffffffffff1673ffffffffffffffffffffffffffffffffffffffff1681526020019081526020016000206040518060400160405290816000820160009054906101000a900473ffffffffffffffffffffffffffffffffffffffff1673ffffffffffffffffffffffffffffffffffffffff1673ffffffffffffffffffffffffffffffffffffffff168152602001600182018054610a3490611956565b80601f0160208091040260200160405190810160405280929190818152602001828054610a6090611956565b8015610aad5780601f10610a8257610100808354040283529160200191610aad565b820191906000526020600020905b815481529060010190602001808311610a9057829003601f168201915b505050505081525050905033816000019073ffffffffffffffffffffffffffffffffffffffff16908173ffffffffffffffffffffffffffffffffffffffff16815250508381602001819052508260020181908060018154018082558091505060019003906000526020600020906002020160009091909190915060008201518160000160006101000a81548173ffffffffffffffffffffffffffffffffffffffff021916908373ffffffffffffffffffffffffffffffffffffffff1602179055506020820151816001019081610b839190611b33565b505050505b50505050565b606060038054610b9d90611956565b80601f0160208091040260200160405190810160405280929190818152602001828054610bc990611956565b8015610c165780601f10610beb57610100808354040283529160200191610c16565b820191906000526020600020905b815481529060010190602001808311610bf957829003601f168201915b5050505050905090565b610c28610528565b610c3157600080fd5b610c3a81611018565b50565b610c45611137565b600060046000848152602001908152602001600020905080604051806080016040529081600082018054610c7890611956565b80601f0160208091040260200160405190810160405280929190818152602001828054610ca490611956565b8015610cf15780601f10610cc657610100808354040283529160200191610cf1565b820191906000526020600020905b815481529060010190602001808311610cd457829003601f168201915b505050505081526020016001820160009054906101000a900460ff166003811115610d1f57610d1e611681565b5b6003811115610d3157610d30611681565b5b81526020016001820160019054906101000a900473ffffffffffffffffffffffffffffffffffffffff1673ffffffffffffffffffffffffffffffffffffffff1673ffffffffffffffffffffffffffffffffffffffff16815260200160028201805480602002602001604051908101604052809291908181526020016000905b82821015610eca57838290600052602060002090600202016040518060400160405290816000820160009054906101000a900473ffffffffffffffffffffffffffffffffffffffff1673ffffffffffffffffffffffffffffffffffffffff1673ffffffffffffffffffffffffffffffffffffffff168152602001600182018054610e3990611956565b80601f0160208091040260200160405190810160405280929190818152602001828054610e6590611956565b8015610eb25780601f10610e8757610100808354040283529160200191610eb2565b820191906000526020600020905b815481529060010190602001808311610e9557829003601f168201915b50505050508152505081526020019060010190610db0565b5050505081525050915050919050565b610f74838383604051602401610ef293929190611da9565b6040516020818303038152906040527fca47c4eb000000000000000000000000000000000000000000000000000000007bffffffffffffffffffffffffffffffffffffffffffffffffffffffff19166020820180517bffffffffffffffffffffffffffffffffffffffffffffffffffffffff838183161783525050505061110e565b505050565b611013838383604051602401610f9193929190611de7565b6040516020818303038152906040527f2ced7cef000000000000000000000000000000000000000000000000000000007bffffffffffffffffffffffffffffffffffffffffffffffffffffffff19166020820180517bffffffffffffffffffffffffffffffffffffffffffffffffffffffff838183161783525050505061110e565b505050565b600073ffffffffffffffffffffffffffffffffffffffff168173ffffffffffffffffffffffffffffffffffffffff160361105157600080fd5b8073ffffffffffffffffffffffffffffffffffffffff1660008054906101000a900473ffffffffffffffffffffffffffffffffffffffff1673ffffffffffffffffffffffffffffffffffffffff167f8be0079c531659141344cd1fd0a4f28419497f9722a3daafe3b4186f6b6457e060405160405180910390a3806000806101000a81548173ffffffffffffffffffffffffffffffffffffffff021916908373ffffffffffffffffffffffffffffffffffffffff16021790555050565b60008151905060006a636f6e736f6c652e6c6f679050602083016000808483855afa5050505050565b6040518060800160405280606081526020016000600381111561115d5761115c611681565b5b8152602001600073ffffffffffffffffffffffffffffffffffffffff168152602001606081525090565b6000819050919050565b61119a81611187565b82525050565b60006020820190506111b56000830184611191565b92915050565b6000604051905090565b600080fd5b600080fd5b6111d881611187565b81146111e357600080fd5b50565b6000813590506111f5816111cf565b92915050565b600060208284031215611211576112106111c5565b5b600061121f848285016111e6565b91505092915050565b600073ffffffffffffffffffffffffffffffffffffffff82169050919050565b600061125382611228565b9050919050565b61126381611248565b82525050565b600060208201905061127e600083018461125a565b92915050565b600061128f82611228565b9050919050565b61129f81611284565b82525050565b60006020820190506112ba6000830184611296565b92915050565b60008115159050919050565b6112d5816112c0565b82525050565b60006020820190506112f060008301846112cc565b92915050565b600080fd5b600080fd5b6000601f19601f8301169050919050565b7f4e487b7100000000000000000000000000000000000000000000000000000000600052604160045260246000fd5b61134982611300565b810181811067ffffffffffffffff8211171561136857611367611311565b5b80604052505050565b600061137b6111bb565b90506113878282611340565b919050565b600067ffffffffffffffff8211156113a7576113a6611311565b5b6113b082611300565b9050602081019050919050565b82818337600083830152505050565b60006113df6113da8461138c565b611371565b9050828152602081018484840111156113fb576113fa6112fb565b5b6114068482856113bd565b509392505050565b600082601f830112611423576114226112f6565b5b81356114338482602086016113cc565b91505092915050565b60008060408385031215611453576114526111c5565b5b600083013567ffffffffffffffff811115611471576114706111ca565b5b61147d8582860161140e565b925050602061148e858286016111e6565b9150509250929050565b6000602082840312156114ae576114ad6111c5565b5b600082013567ffffffffffffffff8111156114cc576114cb6111ca565b5b6114d88482850161140e565b91505092915050565b600080604083850312156114f8576114f76111c5565b5b6000611506858286016111e6565b925050602083013567ffffffffffffffff811115611527576115266111ca565b5b6115338582860161140e565b9150509250929050565b600081519050919050565b600082825260208201905092915050565b60005b8381101561157757808201518184015260208101905061155c565b60008484015250505050565b600061158e8261153d565b6115988185611548565b93506115a8818560208601611559565b6115b181611300565b840191505092915050565b600060208201905081810360008301526115d68184611583565b905092915050565b6115e781611284565b81146115f257600080fd5b50565b600081359050611604816115de565b92915050565b6000602082840312156116205761161f6111c5565b5b600061162e848285016115f5565b91505092915050565b600082825260208201905092915050565b60006116538261153d565b61165d8185611637565b935061166d818560208601611559565b61167681611300565b840191505092915050565b7f4e487b7100000000000000000000000000000000000000000000000000000000600052602160045260246000fd5b600481106116c1576116c0611681565b5b50565b60008190506116d2826116b0565b919050565b60006116e2826116c4565b9050919050565b6116f2816116d7565b82525050565b61170181611284565b82525050565b600081519050919050565b600082825260208201905092915050565b6000819050602082019050919050565b600060408301600083015161174b60008601826116f8565b50602083015184820360208601526117638282611648565b9150508091505092915050565b600061177c8383611733565b905092915050565b6000602082019050919050565b600061179c82611707565b6117a68185611712565b9350836020820285016117b885611723565b8060005b858110156117f457848403895281516117d58582611770565b94506117e083611784565b925060208a019950506001810190506117bc565b50829750879550505050505092915050565b600060808301600083015184820360008601526118238282611648565b915050602083015161183860208601826116e9565b50604083015161184b60408601826116f8565b50606083015184820360608601526118638282611791565b9150508091505092915050565b6000602082019050818103600083015261188a8184611806565b905092915050565b7f596f75206172656e277420746865206f776e6572000000000000000000000000600082015250565b60006118c8601483611548565b91506118d382611892565b602082019050919050565b600060208201905081810360008301526118f7816118bb565b9050919050565b60006040820190506119136000830185611191565b6119206020830184611191565b9392505050565b7f4e487b7100000000000000000000000000000000000000000000000000000000600052602260045260246000fd5b6000600282049050600182168061196e57607f821691505b60208210810361198157611980611927565b5b50919050565b60008190508160005260206000209050919050565b60006020601f8301049050919050565b600082821b905092915050565b6000600883026119e97fffffffffffffffffffffffffffffffffffffffffffffffffffffffffffffffff826119ac565b6119f386836119ac565b95508019841693508086168417925050509392505050565b6000819050919050565b6000611a30611a2b611a2684611187565b611a0b565b611187565b9050919050565b6000819050919050565b611a4a83611a15565b611a5e611a5682611a37565b8484546119b9565b825550505050565b600090565b611a73611a66565b611a7e818484611a41565b505050565b5b81811015611aa257611a97600082611a6b565b600181019050611a84565b5050565b601f821115611ae757611ab881611987565b611ac18461199c565b81016020851015611ad0578190505b611ae4611adc8561199c565b830182611a83565b50505b505050565b600082821c905092915050565b6000611b0a60001984600802611aec565b1980831691505092915050565b6000611b238383611af9565b9150826002028217905092915050565b611b3c8261153d565b67ffffffffffffffff811115611b5557611b54611311565b5b611b5f8254611956565b611b6a828285611aa6565b600060209050601f831160018114611b9d5760008415611b8b578287015190505b611b958582611b17565b865550611bfd565b601f198416611bab86611987565b60005b82811015611bd357848901518255600182019150602085019450602081019050611bae565b86831015611bf05784890151611bec601f891682611af9565b8355505b6001600288020188555050505b505050505050565b600081549050611c1481611956565b9050919050565b818103611c29575050611d01565b611c3282611c05565b67ffffffffffffffff811115611c4b57611c4a611311565b5b611c558254611956565b611c60828285611aa6565b6000601f831160018114611c8f5760008415611c7d578287015490505b611c878582611b17565b865550611cfa565b601f198416611c9d87611987565b9650611ca886611987565b60005b82811015611cd057848901548255600182019150600185019450602081019050611cab565b86831015611ced5784890154611ce9601f891682611af9565b8355505b6001600288020188555050505b5050505050505b565b7f4e487b7100000000000000000000000000000000000000000000000000000000600052603260045260246000fd5b7f4e487b7100000000000000000000000000000000000000000000000000000000600052601160045260246000fd5b6000611d6c82611187565b91507fffffffffffffffffffffffffffffffffffffffffffffffffffffffffffffffff8203611d9e57611d9d611d32565b5b600182019050919050565b60006060820190508181036000830152611dc38186611583565b9050611dd26020830185611191565b611ddf6040830184611191565b949350505050565b60006060820190508181036000830152611e018186611583565b90508181036020830152611e158185611583565b90508181036040830152611e298184611583565b905094935050505056fe556e6c6f636b2074696d6520697320256f20616e6420626c6f636b2074696d657374616d7020697320256f4368616e67696e67206772656574696e672066726f6d202725732720746f2027257327a264697066735822122040f5f6126386470815be0f222b9932052e6f050080ee42513d97a284e85dc50b64736f6c63430008110033",
  "linkReferences": {},
  "deployedLinkReferences": {}
}