{
  "_format": "hh-sol-artifact-1",
  "contractName": "Lock",
  "sourceName": "contracts/Lock.sol",
  "abi": [
    {
      "inputs": [],
      "stateMutability": "payable",
      "type": "constructor"
    },
    {
      "anonymous": false,
      "inputs": [
        {
          "indexed": true,
          "internalType": "address",
          "name": "previousOwner",
          "type": "address"
        },
        {
          "indexed": true,
          "internalType": "address",
          "name": "newOwner",
          "type": "address"
        }
      ],
      "name": "OwnershipTransferred",
      "type": "event"
    },
    {
      "anonymous": false,
      "inputs": [
        {
          "indexed": false,
          "internalType": "uint256",
          "name": "amount",
          "type": "uint256"
        },
        {
          "indexed": false,
          "internalType": "uint256",
          "name": "when",
          "type": "uint256"
        }
      ],
      "name": "Withdrawal",
      "type": "event"
    },
    {
      "inputs": [
        {
          "internalType": "string",
          "name": "prjName",
          "type": "string"
        },
        {
          "internalType": "uint256",
          "name": "prjId",
          "type": "uint256"
        }
      ],
      "name": "createProject",
      "outputs": [],
      "stateMutability": "payable",
      "type": "function"
    },
    {
      "inputs": [],
      "name": "deposit",
      "outputs": [],
      "stateMutability": "payable",
      "type": "function"
    },
    {
      "inputs": [],
      "name": "greet",
      "outputs": [
        {
          "internalType": "string",
          "name": "",
          "type": "string"
        }
      ],
      "stateMutability": "view",
      "type": "function"
    },
    {
      "inputs": [],
      "name": "isOwner",
      "outputs": [
        {
          "internalType": "bool",
          "name": "",
          "type": "bool"
        }
      ],
      "stateMutability": "view",
      "type": "function"
    },
    {
      "inputs": [],
      "name": "lockOwner",
      "outputs": [
        {
          "internalType": "address payable",
          "name": "",
          "type": "address"
        }
      ],
      "stateMutability": "view",
      "type": "function"
    },
    {
      "inputs": [
        {
          "internalType": "uint256",
          "name": "prjId",
          "type": "uint256"
        }
      ],
      "name": "obtainProjectDetails",
      "outputs": [
        {
          "components": [
            {
              "internalType": "string",
              "name": "projectName",
              "type": "string"
            },
            {
              "internalType": "enum Lock.ProjectState",
              "name": "projectState",
              "type": "uint8"
            },
            {
              "internalType": "address",
              "name": "projectOwner",
              "type": "address"
            },
            {
              "components": [
                {
                  "internalType": "address",
                  "name": "projectContributer",
                  "type": "address"
                },
                {
                  "internalType": "string",
                  "name": "ethAmount",
                  "type": "string"
                }
              ],
              "internalType": "struct Lock.projectUser[]",
              "name": "crowdData",
              "type": "tuple[]"
            }
          ],
          "internalType": "struct Lock.projectInfo",
          "name": "",
          "type": "tuple"
        }
      ],
      "stateMutability": "view",
      "type": "function"
    },
    {
      "inputs": [],
      "name": "owner",
      "outputs": [
        {
          "internalType": "address",
          "name": "",
          "type": "address"
        }
      ],
      "stateMutability": "view",
      "type": "function"
    },
    {
      "inputs": [
        {
          "internalType": "uint256",
          "name": "",
          "type": "uint256"
        }
      ],
      "name": "projectIds",
      "outputs": [
        {
          "internalType": "uint256",
          "name": "",
          "type": "uint256"
        }
      ],
      "stateMutability": "view",
      "type": "function"
    },
    {
      "inputs": [],
      "name": "renounceOwnership",
      "outputs": [],
      "stateMutability": "nonpayable",
      "type": "function"
    },
    {
      "inputs": [
        {
          "internalType": "string",
          "name": "_greeting",
          "type": "string"
        }
      ],
      "name": "setGreeting",
      "outputs": [],
      "stateMutability": "nonpayable",
      "type": "function"
    },
    {
      "inputs": [
        {
          "internalType": "address",
          "name": "newOwner",
          "type": "address"
        }
      ],
      "name": "transferOwnership",
      "outputs": [],
      "stateMutability": "nonpayable",
      "type": "function"
    },
    {
      "inputs": [],
      "name": "unlockTime",
      "outputs": [
        {
          "internalType": "uint256",
          "name": "",
          "type": "uint256"
        }
      ],
      "stateMutability": "view",
      "type": "function"
    },
    {
      "inputs": [
        {
          "internalType": "uint256",
          "name": "prjId",
          "type": "uint256"
        },
        {
          "internalType": "string",
          "name": "ethAdded",
          "type": "string"
        }
      ],
      "name": "updateContributerAmount",
      "outputs": [],
      "stateMutability": "payable",
      "type": "function"
    },
    {
      "inputs": [],
      "name": "withdraw",
      "outputs": [],
      "stateMutability": "nonpayable",
      "type": "function"
    }
  ],
  "bytecode": "0x6080604052336000806101000a81548173ffffffffffffffffffffffffffffffffffffffff021916908373ffffffffffffffffffffffffffffffffffffffff16021790555060008054906101000a900473ffffffffffffffffffffffffffffffffffffffff1673ffffffffffffffffffffffffffffffffffffffff16600073ffffffffffffffffffffffffffffffffffffffff167f8be0079c531659141344cd1fd0a4f28419497f9722a3daafe3b4186f6b6457e060405160405180910390a333600260006101000a81548173ffffffffffffffffffffffffffffffffffffffff021916908373ffffffffffffffffffffffffffffffffffffffff1602179055506040518060400160405280600481526020017f696e697400000000000000000000000000000000000000000000000000000000815250600390805190602001906200014d92919062000154565b5062000269565b828054620001629062000233565b90600052602060002090601f016020900481019282620001865760008555620001d2565b82601f10620001a157805160ff1916838001178555620001d2565b82800160010185558215620001d2579182015b82811115620001d1578251825591602001919060010190620001b4565b5b509050620001e19190620001e5565b5090565b5b8082111562000200576000816000905550600101620001e6565b5090565b7f4e487b7100000000000000000000000000000000000000000000000000000000600052602260045260246000fd5b600060028204905060018216806200024c57607f821691505b6020821081141562000263576200026262000204565b5b50919050565b6120f480620002796000396000f3fe6080604052600436106100dd5760003560e01c806391754a5d1161007f578063cfae321711610059578063cfae32171461025a578063d0e30db014610285578063f2fde38b1461028f578063fbe96146146102b8576100dd565b806391754a5d146101f9578063a413686214610215578063b6920b8c1461023e576100dd565b806369cd61be116100bb57806369cd61be14610161578063715018a61461018c5780638da5cb5b146101a35780638f32d59b146101ce576100dd565b8063251c1aa3146100e25780633ccfd60b1461010d57806348c35ad414610124575b600080fd5b3480156100ee57600080fd5b506100f76102f5565b60405161010491906116bc565b60405180910390f35b34801561011957600080fd5b506101226102fb565b005b34801561013057600080fd5b5061014b60048036038101906101469190611717565b61040b565b60405161015891906116bc565b60405180910390f35b34801561016d57600080fd5b5061017661042f565b6040516101839190611785565b60405180910390f35b34801561019857600080fd5b506101a1610455565b005b3480156101af57600080fd5b506101b8610524565b6040516101c591906117c1565b60405180910390f35b3480156101da57600080fd5b506101e361054d565b6040516101f091906117f7565b60405180910390f35b610213600480360381019061020e9190611958565b6105a4565b005b34801561022157600080fd5b5061023c600480360381019061023791906119b4565b6108f0565b005b610258600480360381019061025391906119fd565b6109b7565b005b34801561026657600080fd5b5061026f610dc7565b60405161027c9190611ae1565b60405180910390f35b61028d610e59565b005b34801561029b57600080fd5b506102b660048036038101906102b19190611b2f565b610e9e565b005b3480156102c457600080fd5b506102df60048036038101906102da9190611717565b610ebb565b6040516102ec9190611d95565b60405180910390f35b60015481565b6103206040518060600160405280602b8152602001612071602b913960015442611158565b61032861054d565b610367576040517f08c379a000000000000000000000000000000000000000000000000000000000815260040161035e90611e03565b60405180910390fd5b7fbf2ed60bd5b5965d685680c01195c9514e4382e28e3a5a2d2d5244bf59411b934742604051610398929190611e23565b60405180910390a1600260009054906101000a900473ffffffffffffffffffffffffffffffffffffffff1673ffffffffffffffffffffffffffffffffffffffff166108fc479081150290604051600060405180830381858888f19350505050158015610408573d6000803e3d6000fd5b50565b6006818154811061041b57600080fd5b906000526020600020016000915090505481565b600260009054906101000a900473ffffffffffffffffffffffffffffffffffffffff1681565b61045d61054d565b61046657600080fd5b600073ffffffffffffffffffffffffffffffffffffffff1660008054906101000a900473ffffffffffffffffffffffffffffffffffffffff1673ffffffffffffffffffffffffffffffffffffffff167f8be0079c531659141344cd1fd0a4f28419497f9722a3daafe3b4186f6b6457e060405160405180910390a360008060006101000a81548173ffffffffffffffffffffffffffffffffffffffff021916908373ffffffffffffffffffffffffffffffffffffffff160217905550565b60008060009054906101000a900473ffffffffffffffffffffffffffffffffffffffff16905090565b60008060009054906101000a900473ffffffffffffffffffffffffffffffffffffffff1673ffffffffffffffffffffffffffffffffffffffff163373ffffffffffffffffffffffffffffffffffffffff1614905090565b6000600460008381526020019081526020016000209050828160000190805190602001906105d39291906113b6565b5060008160010160006101000a81548160ff021916908360038111156105fc576105fb611ba6565b5b0217905550338160010160016101000a81548173ffffffffffffffffffffffffffffffffffffffff021916908373ffffffffffffffffffffffffffffffffffffffff1602179055506000600560003373ffffffffffffffffffffffffffffffffffffffff1673ffffffffffffffffffffffffffffffffffffffff1681526020019081526020016000209050338160000160006101000a81548173ffffffffffffffffffffffffffffffffffffffff021916908373ffffffffffffffffffffffffffffffffffffffff1602179055506040518060400160405280600181526020017f31000000000000000000000000000000000000000000000000000000000000008152508160010190805190602001906107179291906113b6565b50816002018190806001815401808255809150506001900390600052602060002090600202016000909190919091506000820160009054906101000a900473ffffffffffffffffffffffffffffffffffffffff168160000160006101000a81548173ffffffffffffffffffffffffffffffffffffffff021916908373ffffffffffffffffffffffffffffffffffffffff16021790555060018201816001019080546107c190611e7b565b6107cc92919061143c565b50505060068390806001815401808255809150506001900390600052602060002001600090919091909150558160046000858152602001908152602001600020600082018160000190805461082090611e7b565b61082b92919061143c565b506001820160009054906101000a900460ff168160010160006101000a81548160ff0219169083600381111561086457610863611ba6565b5b02179055506001820160019054906101000a900473ffffffffffffffffffffffffffffffffffffffff168160010160016101000a81548173ffffffffffffffffffffffffffffffffffffffff021916908373ffffffffffffffffffffffffffffffffffffffff16021790555060028201816002019080546108e69291906114c9565b5090505050505050565b61099d60405180606001604052806023815260200161209c602391396003805461091990611e7b565b80601f016020809104026020016040519081016040528092919081815260200182805461094590611e7b565b80156109925780601f1061096757610100808354040283529160200191610992565b820191906000526020600020905b81548152906001019060200180831161097557829003601f168201915b5050505050836111f7565b80600390805190602001906109b39291906113b6565b5050565b60006004600084815260200190815260200160002090506000805b8260020180549050811015610ab4573373ffffffffffffffffffffffffffffffffffffffff16836002018281548110610a0e57610a0d611ead565b5b906000526020600020906002020160000160009054906101000a900473ffffffffffffffffffffffffffffffffffffffff1673ffffffffffffffffffffffffffffffffffffffff161415610aa15783836002018281548110610a7357610a72611ead565b5b90600052602060002090600202016001019080519060200190610a979291906113b6565b5060019150610ab4565b8080610aac90611f0b565b9150506109d2565b50600015158115151415610dc1576000600560003373ffffffffffffffffffffffffffffffffffffffff1673ffffffffffffffffffffffffffffffffffffffff1681526020019081526020016000206040518060400160405290816000820160009054906101000a900473ffffffffffffffffffffffffffffffffffffffff1673ffffffffffffffffffffffffffffffffffffffff1673ffffffffffffffffffffffffffffffffffffffff168152602001600182018054610b7490611e7b565b80601f0160208091040260200160405190810160405280929190818152602001828054610ba090611e7b565b8015610bed5780601f10610bc257610100808354040283529160200191610bed565b820191906000526020600020905b815481529060010190602001808311610bd057829003601f168201915b505050505081525050905033816000019073ffffffffffffffffffffffffffffffffffffffff16908173ffffffffffffffffffffffffffffffffffffffff16815250508381602001819052508260020181908060018154018082558091505060019003906000526020600020906002020160009091909190915060008201518160000160006101000a81548173ffffffffffffffffffffffffffffffffffffffff021916908373ffffffffffffffffffffffffffffffffffffffff1602179055506020820151816001019080519060200190610cca9291906113b6565b50505082600460008781526020019081526020016000206000820181600001908054610cf590611e7b565b610d0092919061143c565b506001820160009054906101000a900460ff168160010160006101000a81548160ff02191690836003811115610d3957610d38611ba6565b5b02179055506001820160019054906101000a900473ffffffffffffffffffffffffffffffffffffffff168160010160016101000a81548173ffffffffffffffffffffffffffffffffffffffff021916908373ffffffffffffffffffffffffffffffffffffffff1602179055506002820181600201908054610dbb9291906114c9565b50905050505b50505050565b606060038054610dd690611e7b565b80601f0160208091040260200160405190810160405280929190818152602001828054610e0290611e7b565b8015610e4f5780601f10610e2457610100808354040283529160200191610e4f565b820191906000526020600020905b815481529060010190602001808311610e3257829003601f168201915b5050505050905090565b60003411610e9c576040517f08c379a0000000000000000000000000000000000000000000000000000000008152600401610e9390611fc6565b60405180910390fd5b565b610ea661054d565b610eaf57600080fd5b610eb881611296565b50565b610ec36115a8565b600060046000848152602001908152602001600020905080604051806080016040529081600082018054610ef690611e7b565b80601f0160208091040260200160405190810160405280929190818152602001828054610f2290611e7b565b8015610f6f5780601f10610f4457610100808354040283529160200191610f6f565b820191906000526020600020905b815481529060010190602001808311610f5257829003601f168201915b505050505081526020016001820160009054906101000a900460ff166003811115610f9d57610f9c611ba6565b5b6003811115610faf57610fae611ba6565b5b81526020016001820160019054906101000a900473ffffffffffffffffffffffffffffffffffffffff1673ffffffffffffffffffffffffffffffffffffffff1673ffffffffffffffffffffffffffffffffffffffff16815260200160028201805480602002602001604051908101604052809291908181526020016000905b8282101561114857838290600052602060002090600202016040518060400160405290816000820160009054906101000a900473ffffffffffffffffffffffffffffffffffffffff1673ffffffffffffffffffffffffffffffffffffffff1673ffffffffffffffffffffffffffffffffffffffff1681526020016001820180546110b790611e7b565b80601f01602080910402602001604051908101604052809291908181526020018280546110e390611e7b565b80156111305780601f1061110557610100808354040283529160200191611130565b820191906000526020600020905b81548152906001019060200180831161111357829003601f168201915b5050505050815250508152602001906001019061102e565b5050505081525050915050919050565b6111f283838360405160240161117093929190611fe6565b6040516020818303038152906040527fca47c4eb000000000000000000000000000000000000000000000000000000007bffffffffffffffffffffffffffffffffffffffffffffffffffffffff19166020820180517bffffffffffffffffffffffffffffffffffffffffffffffffffffffff838183161783525050505061138d565b505050565b61129183838360405160240161120f93929190612024565b6040516020818303038152906040527f2ced7cef000000000000000000000000000000000000000000000000000000007bffffffffffffffffffffffffffffffffffffffffffffffffffffffff19166020820180517bffffffffffffffffffffffffffffffffffffffffffffffffffffffff838183161783525050505061138d565b505050565b600073ffffffffffffffffffffffffffffffffffffffff168173ffffffffffffffffffffffffffffffffffffffff1614156112d057600080fd5b8073ffffffffffffffffffffffffffffffffffffffff1660008054906101000a900473ffffffffffffffffffffffffffffffffffffffff1673ffffffffffffffffffffffffffffffffffffffff167f8be0079c531659141344cd1fd0a4f28419497f9722a3daafe3b4186f6b6457e060405160405180910390a3806000806101000a81548173ffffffffffffffffffffffffffffffffffffffff021916908373ffffffffffffffffffffffffffffffffffffffff16021790555050565b60008151905060006a636f6e736f6c652e6c6f679050602083016000808483855afa5050505050565b8280546113c290611e7b565b90600052602060002090601f0160209004810192826113e4576000855561142b565b82601f106113fd57805160ff191683800117855561142b565b8280016001018555821561142b579182015b8281111561142a57825182559160200191906001019061140f565b5b50905061143891906115f8565b5090565b82805461144890611e7b565b90600052602060002090601f01602090048101928261146a57600085556114b8565b82601f1061147b57805485556114b8565b828001600101855582156114b857600052602060002091601f016020900482015b828111156114b757825482559160010191906001019061149c565b5b5090506114c591906115f8565b5090565b8280548282559060005260206000209060020281019282156115975760005260206000209160020282015b828111156115965782826000820160009054906101000a900473ffffffffffffffffffffffffffffffffffffffff168160000160006101000a81548173ffffffffffffffffffffffffffffffffffffffff021916908373ffffffffffffffffffffffffffffffffffffffff160217905550600182018160010190805461157990611e7b565b61158492919061143c565b505050916002019190600201906114f4565b5b5090506115a49190611615565b5090565b604051806080016040528060608152602001600060038111156115ce576115cd611ba6565b5b8152602001600073ffffffffffffffffffffffffffffffffffffffff168152602001606081525090565b5b808211156116115760008160009055506001016115f9565b5090565b5b8082111561165f57600080820160006101000a81549073ffffffffffffffffffffffffffffffffffffffff02191690556001820160006116569190611663565b50600201611616565b5090565b50805461166f90611e7b565b6000825580601f1061168157506116a0565b601f01602090049060005260206000209081019061169f91906115f8565b5b50565b6000819050919050565b6116b6816116a3565b82525050565b60006020820190506116d160008301846116ad565b92915050565b6000604051905090565b600080fd5b600080fd5b6116f4816116a3565b81146116ff57600080fd5b50565b600081359050611711816116eb565b92915050565b60006020828403121561172d5761172c6116e1565b5b600061173b84828501611702565b91505092915050565b600073ffffffffffffffffffffffffffffffffffffffff82169050919050565b600061176f82611744565b9050919050565b61177f81611764565b82525050565b600060208201905061179a6000830184611776565b92915050565b60006117ab82611744565b9050919050565b6117bb816117a0565b82525050565b60006020820190506117d660008301846117b2565b92915050565b60008115159050919050565b6117f1816117dc565b82525050565b600060208201905061180c60008301846117e8565b92915050565b600080fd5b600080fd5b6000601f19601f8301169050919050565b7f4e487b7100000000000000000000000000000000000000000000000000000000600052604160045260246000fd5b6118658261181c565b810181811067ffffffffffffffff821117156118845761188361182d565b5b80604052505050565b60006118976116d7565b90506118a3828261185c565b919050565b600067ffffffffffffffff8211156118c3576118c261182d565b5b6118cc8261181c565b9050602081019050919050565b82818337600083830152505050565b60006118fb6118f6846118a8565b61188d565b90508281526020810184848401111561191757611916611817565b5b6119228482856118d9565b509392505050565b600082601f83011261193f5761193e611812565b5b813561194f8482602086016118e8565b91505092915050565b6000806040838503121561196f5761196e6116e1565b5b600083013567ffffffffffffffff81111561198d5761198c6116e6565b5b6119998582860161192a565b92505060206119aa85828601611702565b9150509250929050565b6000602082840312156119ca576119c96116e1565b5b600082013567ffffffffffffffff8111156119e8576119e76116e6565b5b6119f48482850161192a565b91505092915050565b60008060408385031215611a1457611a136116e1565b5b6000611a2285828601611702565b925050602083013567ffffffffffffffff811115611a4357611a426116e6565b5b611a4f8582860161192a565b9150509250929050565b600081519050919050565b600082825260208201905092915050565b60005b83811015611a93578082015181840152602081019050611a78565b83811115611aa2576000848401525b50505050565b6000611ab382611a59565b611abd8185611a64565b9350611acd818560208601611a75565b611ad68161181c565b840191505092915050565b60006020820190508181036000830152611afb8184611aa8565b905092915050565b611b0c816117a0565b8114611b1757600080fd5b50565b600081359050611b2981611b03565b92915050565b600060208284031215611b4557611b446116e1565b5b6000611b5384828501611b1a565b91505092915050565b600082825260208201905092915050565b6000611b7882611a59565b611b828185611b5c565b9350611b92818560208601611a75565b611b9b8161181c565b840191505092915050565b7f4e487b7100000000000000000000000000000000000000000000000000000000600052602160045260246000fd5b60048110611be657611be5611ba6565b5b50565b6000819050611bf782611bd5565b919050565b6000611c0782611be9565b9050919050565b611c1781611bfc565b82525050565b611c26816117a0565b82525050565b600081519050919050565b600082825260208201905092915050565b6000819050602082019050919050565b6000604083016000830151611c706000860182611c1d565b5060208301518482036020860152611c888282611b6d565b9150508091505092915050565b6000611ca18383611c58565b905092915050565b6000602082019050919050565b6000611cc182611c2c565b611ccb8185611c37565b935083602082028501611cdd85611c48565b8060005b85811015611d195784840389528151611cfa8582611c95565b9450611d0583611ca9565b925060208a01995050600181019050611ce1565b50829750879550505050505092915050565b60006080830160008301518482036000860152611d488282611b6d565b9150506020830151611d5d6020860182611c0e565b506040830151611d706040860182611c1d565b5060608301518482036060860152611d888282611cb6565b9150508091505092915050565b60006020820190508181036000830152611daf8184611d2b565b905092915050565b7f596f75206172656e277420746865206f776e6572000000000000000000000000600082015250565b6000611ded601483611a64565b9150611df882611db7565b602082019050919050565b60006020820190508181036000830152611e1c81611de0565b9050919050565b6000604082019050611e3860008301856116ad565b611e4560208301846116ad565b9392505050565b7f4e487b7100000000000000000000000000000000000000000000000000000000600052602260045260246000fd5b60006002820490506001821680611e9357607f821691505b60208210811415611ea757611ea6611e4c565b5b50919050565b7f4e487b7100000000000000000000000000000000000000000000000000000000600052603260045260246000fd5b7f4e487b7100000000000000000000000000000000000000000000000000000000600052601160045260246000fd5b6000611f16826116a3565b91507fffffffffffffffffffffffffffffffffffffffffffffffffffffffffffffffff821415611f4957611f48611edc565b5b600182019050919050565b7f43616e6e6f74206465706f736974207a65726f206f72206e656761746976652060008201527f45746865722e0000000000000000000000000000000000000000000000000000602082015250565b6000611fb0602683611a64565b9150611fbb82611f54565b604082019050919050565b60006020820190508181036000830152611fdf81611fa3565b9050919050565b600060608201905081810360008301526120008186611aa8565b905061200f60208301856116ad565b61201c60408301846116ad565b949350505050565b6000606082019050818103600083015261203e8186611aa8565b905081810360208301526120528185611aa8565b905081810360408301526120668184611aa8565b905094935050505056fe556e6c6f636b2074696d6520697320256f20616e6420626c6f636b2074696d657374616d7020697320256f4368616e67696e67206772656574696e672066726f6d202725732720746f2027257327a26469706673582212205cb77d8b5fd7e689935fcf9c8af613121a21a5eb7b71da05d1572b849861958164736f6c63430008090033",
  "linkReferences": {},
  "deployedLinkReferences": {}
}