{
  "_format": "hh-sol-artifact-1",
  "contractName": "Lock",
  "sourceName": "contracts/Lock.sol",
  "abi": [
    {
      "inputs": [],
      "stateMutability": "payable",
      "type": "constructor"
    },
    {
      "anonymous": false,
      "inputs": [
        {
          "indexed": true,
          "internalType": "address",
          "name": "previousOwner",
          "type": "address"
        },
        {
          "indexed": true,
          "internalType": "address",
          "name": "newOwner",
          "type": "address"
        }
      ],
      "name": "OwnershipTransferred",
      "type": "event"
    },
    {
      "anonymous": false,
      "inputs": [
        {
          "indexed": false,
          "internalType": "uint256",
          "name": "amount",
          "type": "uint256"
        },
        {
          "indexed": false,
          "internalType": "uint256",
          "name": "when",
          "type": "uint256"
        }
      ],
      "name": "Withdrawal",
      "type": "event"
    },
    {
      "inputs": [
        {
          "internalType": "string",
          "name": "prjName",
          "type": "string"
        },
        {
          "internalType": "uint256",
          "name": "prjId",
          "type": "uint256"
        }
      ],
      "name": "createProject",
      "outputs": [],
      "stateMutability": "nonpayable",
      "type": "function"
    },
    {
      "inputs": [],
      "name": "greet",
      "outputs": [
        {
          "internalType": "string",
          "name": "",
          "type": "string"
        }
      ],
      "stateMutability": "view",
      "type": "function"
    },
    {
      "inputs": [],
      "name": "isOwner",
      "outputs": [
        {
          "internalType": "bool",
          "name": "",
          "type": "bool"
        }
      ],
      "stateMutability": "view",
      "type": "function"
    },
    {
      "inputs": [],
      "name": "lockOwner",
      "outputs": [
        {
          "internalType": "address payable",
          "name": "",
          "type": "address"
        }
      ],
      "stateMutability": "view",
      "type": "function"
    },
    {
      "inputs": [
        {
          "internalType": "uint256",
          "name": "prjId",
          "type": "uint256"
        }
      ],
      "name": "obtainProjectDetails",
      "outputs": [
        {
          "components": [
            {
              "internalType": "string",
              "name": "projectName",
              "type": "string"
            },
            {
              "internalType": "enum Lock.ProjectState",
              "name": "projectState",
              "type": "uint8"
            },
            {
              "internalType": "address",
              "name": "projectOwner",
              "type": "address"
            },
            {
              "components": [
                {
                  "internalType": "address",
                  "name": "projectContributer",
                  "type": "address"
                },
                {
                  "internalType": "uint16",
                  "name": "ethAmount",
                  "type": "uint16"
                }
              ],
              "internalType": "struct Lock.projectUser[]",
              "name": "CrowdData",
              "type": "tuple[]"
            }
          ],
          "internalType": "struct Lock.projectInfo",
          "name": "",
          "type": "tuple"
        }
      ],
      "stateMutability": "view",
      "type": "function"
    },
    {
      "inputs": [],
      "name": "owner",
      "outputs": [
        {
          "internalType": "address",
          "name": "",
          "type": "address"
        }
      ],
      "stateMutability": "view",
      "type": "function"
    },
    {
      "inputs": [
        {
          "internalType": "uint256",
          "name": "",
          "type": "uint256"
        }
      ],
      "name": "projectIds",
      "outputs": [
        {
          "internalType": "uint256",
          "name": "",
          "type": "uint256"
        }
      ],
      "stateMutability": "view",
      "type": "function"
    },
    {
      "inputs": [],
      "name": "renounceOwnership",
      "outputs": [],
      "stateMutability": "nonpayable",
      "type": "function"
    },
    {
      "inputs": [
        {
          "internalType": "string",
          "name": "_greeting",
          "type": "string"
        }
      ],
      "name": "setGreeting",
      "outputs": [],
      "stateMutability": "nonpayable",
      "type": "function"
    },
    {
      "inputs": [
        {
          "internalType": "address",
          "name": "newOwner",
          "type": "address"
        }
      ],
      "name": "transferOwnership",
      "outputs": [],
      "stateMutability": "nonpayable",
      "type": "function"
    },
    {
      "inputs": [],
      "name": "unlockTime",
      "outputs": [
        {
          "internalType": "uint256",
          "name": "",
          "type": "uint256"
        }
      ],
      "stateMutability": "view",
      "type": "function"
    },
    {
      "inputs": [],
      "name": "withdraw",
      "outputs": [],
      "stateMutability": "nonpayable",
      "type": "function"
    }
  ],
  "bytecode": "0x6080604052336000806101000a81548173ffffffffffffffffffffffffffffffffffffffff021916908373ffffffffffffffffffffffffffffffffffffffff16021790555060008054906101000a900473ffffffffffffffffffffffffffffffffffffffff1673ffffffffffffffffffffffffffffffffffffffff16600073ffffffffffffffffffffffffffffffffffffffff167f8be0079c531659141344cd1fd0a4f28419497f9722a3daafe3b4186f6b6457e060405160405180910390a333600260006101000a81548173ffffffffffffffffffffffffffffffffffffffff021916908373ffffffffffffffffffffffffffffffffffffffff1602179055506040518060400160405280600481526020017f696e69740000000000000000000000000000000000000000000000000000000081525060039081620001469190620003c7565b50620004ae565b600081519050919050565b7f4e487b7100000000000000000000000000000000000000000000000000000000600052604160045260246000fd5b7f4e487b7100000000000000000000000000000000000000000000000000000000600052602260045260246000fd5b60006002820490506001821680620001cf57607f821691505b602082108103620001e557620001e462000187565b5b50919050565b60008190508160005260206000209050919050565b60006020601f8301049050919050565b600082821b905092915050565b6000600883026200024f7fffffffffffffffffffffffffffffffffffffffffffffffffffffffffffffffff8262000210565b6200025b868362000210565b95508019841693508086168417925050509392505050565b6000819050919050565b6000819050919050565b6000620002a8620002a26200029c8462000273565b6200027d565b62000273565b9050919050565b6000819050919050565b620002c48362000287565b620002dc620002d382620002af565b8484546200021d565b825550505050565b600090565b620002f3620002e4565b62000300818484620002b9565b505050565b5b8181101562000328576200031c600082620002e9565b60018101905062000306565b5050565b601f82111562000377576200034181620001eb565b6200034c8462000200565b810160208510156200035c578190505b620003746200036b8562000200565b83018262000305565b50505b505050565b600082821c905092915050565b60006200039c600019846008026200037c565b1980831691505092915050565b6000620003b7838362000389565b9150826002028217905092915050565b620003d2826200014d565b67ffffffffffffffff811115620003ee57620003ed62000158565b5b620003fa8254620001b6565b620004078282856200032c565b600060209050601f8311600181146200043f57600084156200042a578287015190505b620004368582620003a9565b865550620004a6565b601f1984166200044f86620001eb565b60005b82811015620004795784890151825560018201915060208501945060208101905062000452565b8683101562000499578489015162000495601f89168262000389565b8355505b6001600288020188555050505b505050505050565b6116fc80620004be6000396000f3fe608060405234801561001057600080fd5b50600436106100b45760003560e01c80638f32d59b116100715780638f32d59b1461015757806391754a5d14610175578063a413686214610191578063cfae3217146101ad578063f2fde38b146101cb578063fbe96146146101e7576100b4565b8063251c1aa3146100b95780633ccfd60b146100d757806348c35ad4146100e157806369cd61be14610111578063715018a61461012f5780638da5cb5b14610139575b600080fd5b6100c1610217565b6040516100ce9190610be9565b60405180910390f35b6100df61021d565b005b6100fb60048036038101906100f69190610c44565b61032d565b6040516101089190610be9565b60405180910390f35b610119610351565b6040516101269190610cb2565b60405180910390f35b610137610377565b005b610141610446565b60405161014e9190610cee565b60405180910390f35b61015f61046f565b60405161016c9190610d24565b60405180910390f35b61018f600480360381019061018a9190610e85565b6104c6565b005b6101ab60048036038101906101a69190610ee1565b61058d565b005b6101b561064d565b6040516101c29190610fa9565b60405180910390f35b6101e560048036038101906101e09190610ff7565b6106df565b005b61020160048036038101906101fc9190610c44565b6106fc565b60405161020e9190611259565b60405180910390f35b60015481565b6102426040518060600160405280602b8152602001611679602b913960015442610923565b61024a61046f565b610289576040517f08c379a0000000000000000000000000000000000000000000000000000000008152600401610280906112c7565b60405180910390fd5b7fbf2ed60bd5b5965d685680c01195c9514e4382e28e3a5a2d2d5244bf59411b9347426040516102ba9291906112e7565b60405180910390a1600260009054906101000a900473ffffffffffffffffffffffffffffffffffffffff1673ffffffffffffffffffffffffffffffffffffffff166108fc479081150290604051600060405180830381858888f1935050505015801561032a573d6000803e3d6000fd5b50565b6005818154811061033d57600080fd5b906000526020600020016000915090505481565b600260009054906101000a900473ffffffffffffffffffffffffffffffffffffffff1681565b61037f61046f565b61038857600080fd5b600073ffffffffffffffffffffffffffffffffffffffff1660008054906101000a900473ffffffffffffffffffffffffffffffffffffffff1673ffffffffffffffffffffffffffffffffffffffff167f8be0079c531659141344cd1fd0a4f28419497f9722a3daafe3b4186f6b6457e060405160405180910390a360008060006101000a81548173ffffffffffffffffffffffffffffffffffffffff021916908373ffffffffffffffffffffffffffffffffffffffff160217905550565b60008060009054906101000a900473ffffffffffffffffffffffffffffffffffffffff16905090565b60008060009054906101000a900473ffffffffffffffffffffffffffffffffffffffff1673ffffffffffffffffffffffffffffffffffffffff163373ffffffffffffffffffffffffffffffffffffffff1614905090565b6000600460008381526020019081526020016000209050828160000190816104ee919061151c565b5060008160010160006101000a81548160ff021916908360038111156105175761051661106e565b5b0217905550338160010160016101000a81548173ffffffffffffffffffffffffffffffffffffffff021916908373ffffffffffffffffffffffffffffffffffffffff1602179055506005829080600181540180825580915050600190039060005260206000200160009091909190915055505050565b61063a6040518060600160405280602381526020016116a460239139600380546105b69061133f565b80601f01602080910402602001604051908101604052809291908181526020018280546105e29061133f565b801561062f5780601f106106045761010080835404028352916020019161062f565b820191906000526020600020905b81548152906001019060200180831161061257829003601f168201915b5050505050836109c2565b8060039081610649919061151c565b5050565b60606003805461065c9061133f565b80601f01602080910402602001604051908101604052809291908181526020018280546106889061133f565b80156106d55780601f106106aa576101008083540402835291602001916106d5565b820191906000526020600020905b8154815290600101906020018083116106b857829003601f168201915b5050505050905090565b6106e761046f565b6106f057600080fd5b6106f981610a61565b50565b610704610b80565b6000600460008481526020019081526020016000209050806040518060800160405290816000820180546107379061133f565b80601f01602080910402602001604051908101604052809291908181526020018280546107639061133f565b80156107b05780601f10610785576101008083540402835291602001916107b0565b820191906000526020600020905b81548152906001019060200180831161079357829003601f168201915b505050505081526020016001820160009054906101000a900460ff1660038111156107de576107dd61106e565b5b60038111156107f0576107ef61106e565b5b81526020016001820160019054906101000a900473ffffffffffffffffffffffffffffffffffffffff1673ffffffffffffffffffffffffffffffffffffffff1673ffffffffffffffffffffffffffffffffffffffff16815260200160028201805480602002602001604051908101604052809291908181526020016000905b82821015610913578382906000526020600020016040518060400160405290816000820160009054906101000a900473ffffffffffffffffffffffffffffffffffffffff1673ffffffffffffffffffffffffffffffffffffffff1673ffffffffffffffffffffffffffffffffffffffff1681526020016000820160149054906101000a900461ffff1661ffff1661ffff16815250508152602001906001019061086f565b5050505081525050915050919050565b6109bd83838360405160240161093b939291906115ee565b6040516020818303038152906040527fca47c4eb000000000000000000000000000000000000000000000000000000007bffffffffffffffffffffffffffffffffffffffffffffffffffffffff19166020820180517bffffffffffffffffffffffffffffffffffffffffffffffffffffffff8381831617835250505050610b57565b505050565b610a5c8383836040516024016109da9392919061162c565b6040516020818303038152906040527f2ced7cef000000000000000000000000000000000000000000000000000000007bffffffffffffffffffffffffffffffffffffffffffffffffffffffff19166020820180517bffffffffffffffffffffffffffffffffffffffffffffffffffffffff8381831617835250505050610b57565b505050565b600073ffffffffffffffffffffffffffffffffffffffff168173ffffffffffffffffffffffffffffffffffffffff1603610a9a57600080fd5b8073ffffffffffffffffffffffffffffffffffffffff1660008054906101000a900473ffffffffffffffffffffffffffffffffffffffff1673ffffffffffffffffffffffffffffffffffffffff167f8be0079c531659141344cd1fd0a4f28419497f9722a3daafe3b4186f6b6457e060405160405180910390a3806000806101000a81548173ffffffffffffffffffffffffffffffffffffffff021916908373ffffffffffffffffffffffffffffffffffffffff16021790555050565b60008151905060006a636f6e736f6c652e6c6f679050602083016000808483855afa5050505050565b60405180608001604052806060815260200160006003811115610ba657610ba561106e565b5b8152602001600073ffffffffffffffffffffffffffffffffffffffff168152602001606081525090565b6000819050919050565b610be381610bd0565b82525050565b6000602082019050610bfe6000830184610bda565b92915050565b6000604051905090565b600080fd5b600080fd5b610c2181610bd0565b8114610c2c57600080fd5b50565b600081359050610c3e81610c18565b92915050565b600060208284031215610c5a57610c59610c0e565b5b6000610c6884828501610c2f565b91505092915050565b600073ffffffffffffffffffffffffffffffffffffffff82169050919050565b6000610c9c82610c71565b9050919050565b610cac81610c91565b82525050565b6000602082019050610cc76000830184610ca3565b92915050565b6000610cd882610c71565b9050919050565b610ce881610ccd565b82525050565b6000602082019050610d036000830184610cdf565b92915050565b60008115159050919050565b610d1e81610d09565b82525050565b6000602082019050610d396000830184610d15565b92915050565b600080fd5b600080fd5b6000601f19601f8301169050919050565b7f4e487b7100000000000000000000000000000000000000000000000000000000600052604160045260246000fd5b610d9282610d49565b810181811067ffffffffffffffff82111715610db157610db0610d5a565b5b80604052505050565b6000610dc4610c04565b9050610dd08282610d89565b919050565b600067ffffffffffffffff821115610df057610def610d5a565b5b610df982610d49565b9050602081019050919050565b82818337600083830152505050565b6000610e28610e2384610dd5565b610dba565b905082815260208101848484011115610e4457610e43610d44565b5b610e4f848285610e06565b509392505050565b600082601f830112610e6c57610e6b610d3f565b5b8135610e7c848260208601610e15565b91505092915050565b60008060408385031215610e9c57610e9b610c0e565b5b600083013567ffffffffffffffff811115610eba57610eb9610c13565b5b610ec685828601610e57565b9250506020610ed785828601610c2f565b9150509250929050565b600060208284031215610ef757610ef6610c0e565b5b600082013567ffffffffffffffff811115610f1557610f14610c13565b5b610f2184828501610e57565b91505092915050565b600081519050919050565b600082825260208201905092915050565b60005b83811015610f64578082015181840152602081019050610f49565b60008484015250505050565b6000610f7b82610f2a565b610f858185610f35565b9350610f95818560208601610f46565b610f9e81610d49565b840191505092915050565b60006020820190508181036000830152610fc38184610f70565b905092915050565b610fd481610ccd565b8114610fdf57600080fd5b50565b600081359050610ff181610fcb565b92915050565b60006020828403121561100d5761100c610c0e565b5b600061101b84828501610fe2565b91505092915050565b600082825260208201905092915050565b600061104082610f2a565b61104a8185611024565b935061105a818560208601610f46565b61106381610d49565b840191505092915050565b7f4e487b7100000000000000000000000000000000000000000000000000000000600052602160045260246000fd5b600481106110ae576110ad61106e565b5b50565b60008190506110bf8261109d565b919050565b60006110cf826110b1565b9050919050565b6110df816110c4565b82525050565b6110ee81610ccd565b82525050565b600081519050919050565b600082825260208201905092915050565b6000819050602082019050919050565b600061ffff82169050919050565b61113781611120565b82525050565b60408201600082015161115360008501826110e5565b506020820151611166602085018261112e565b50505050565b6000611178838361113d565b60408301905092915050565b6000602082019050919050565b600061119c826110f4565b6111a681856110ff565b93506111b183611110565b8060005b838110156111e25781516111c9888261116c565b97506111d483611184565b9250506001810190506111b5565b5085935050505092915050565b6000608083016000830151848203600086015261120c8282611035565b915050602083015161122160208601826110d6565b50604083015161123460408601826110e5565b506060830151848203606086015261124c8282611191565b9150508091505092915050565b6000602082019050818103600083015261127381846111ef565b905092915050565b7f596f75206172656e277420746865206f776e6572000000000000000000000000600082015250565b60006112b1601483610f35565b91506112bc8261127b565b602082019050919050565b600060208201905081810360008301526112e0816112a4565b9050919050565b60006040820190506112fc6000830185610bda565b6113096020830184610bda565b9392505050565b7f4e487b7100000000000000000000000000000000000000000000000000000000600052602260045260246000fd5b6000600282049050600182168061135757607f821691505b60208210810361136a57611369611310565b5b50919050565b60008190508160005260206000209050919050565b60006020601f8301049050919050565b600082821b905092915050565b6000600883026113d27fffffffffffffffffffffffffffffffffffffffffffffffffffffffffffffffff82611395565b6113dc8683611395565b95508019841693508086168417925050509392505050565b6000819050919050565b600061141961141461140f84610bd0565b6113f4565b610bd0565b9050919050565b6000819050919050565b611433836113fe565b61144761143f82611420565b8484546113a2565b825550505050565b600090565b61145c61144f565b61146781848461142a565b505050565b5b8181101561148b57611480600082611454565b60018101905061146d565b5050565b601f8211156114d0576114a181611370565b6114aa84611385565b810160208510156114b9578190505b6114cd6114c585611385565b83018261146c565b50505b505050565b600082821c905092915050565b60006114f3600019846008026114d5565b1980831691505092915050565b600061150c83836114e2565b9150826002028217905092915050565b61152582610f2a565b67ffffffffffffffff81111561153e5761153d610d5a565b5b611548825461133f565b61155382828561148f565b600060209050601f8311600181146115865760008415611574578287015190505b61157e8582611500565b8655506115e6565b601f19841661159486611370565b60005b828110156115bc57848901518255600182019150602085019450602081019050611597565b868310156115d957848901516115d5601f8916826114e2565b8355505b6001600288020188555050505b505050505050565b600060608201905081810360008301526116088186610f70565b90506116176020830185610bda565b6116246040830184610bda565b949350505050565b600060608201905081810360008301526116468186610f70565b9050818103602083015261165a8185610f70565b9050818103604083015261166e8184610f70565b905094935050505056fe556e6c6f636b2074696d6520697320256f20616e6420626c6f636b2074696d657374616d7020697320256f4368616e67696e67206772656574696e672066726f6d202725732720746f2027257327a2646970667358221220d25659fbae576f9c96375e94f897766f971da33603a1d44f3c179cd34d839b6364736f6c63430008110033",
  "linkReferences": {},
  "deployedLinkReferences": {}
}