{
  "_format": "hh-sol-artifact-1",
  "contractName": "Lock",
  "sourceName": "contracts/Lock.sol",
  "abi": [
    {
      "inputs": [],
      "stateMutability": "payable",
      "type": "constructor"
    },
    {
      "anonymous": false,
      "inputs": [
        {
          "indexed": true,
          "internalType": "address",
          "name": "previousOwner",
          "type": "address"
        },
        {
          "indexed": true,
          "internalType": "address",
          "name": "newOwner",
          "type": "address"
        }
      ],
      "name": "OwnershipTransferred",
      "type": "event"
    },
    {
      "anonymous": false,
      "inputs": [
        {
          "indexed": false,
          "internalType": "uint256",
          "name": "amount",
          "type": "uint256"
        },
        {
          "indexed": false,
          "internalType": "uint256",
          "name": "when",
          "type": "uint256"
        }
      ],
      "name": "Withdrawal",
      "type": "event"
    },
    {
      "inputs": [],
      "name": "greet",
      "outputs": [
        {
          "internalType": "string",
          "name": "",
          "type": "string"
        }
      ],
      "stateMutability": "view",
      "type": "function"
    },
    {
      "inputs": [],
      "name": "isOwner",
      "outputs": [
        {
          "internalType": "bool",
          "name": "",
          "type": "bool"
        }
      ],
      "stateMutability": "view",
      "type": "function"
    },
    {
      "inputs": [],
      "name": "lockOwner",
      "outputs": [
        {
          "internalType": "address payable",
          "name": "",
          "type": "address"
        }
      ],
      "stateMutability": "view",
      "type": "function"
    },
    {
      "inputs": [],
      "name": "owner",
      "outputs": [
        {
          "internalType": "address",
          "name": "",
          "type": "address"
        }
      ],
      "stateMutability": "view",
      "type": "function"
    },
    {
      "inputs": [],
      "name": "renounceOwnership",
      "outputs": [],
      "stateMutability": "nonpayable",
      "type": "function"
    },
    {
      "inputs": [
        {
          "internalType": "string",
          "name": "_greeting",
          "type": "string"
        }
      ],
      "name": "setGreeting",
      "outputs": [],
      "stateMutability": "nonpayable",
      "type": "function"
    },
    {
      "inputs": [
        {
          "internalType": "address",
          "name": "newOwner",
          "type": "address"
        }
      ],
      "name": "transferOwnership",
      "outputs": [],
      "stateMutability": "nonpayable",
      "type": "function"
    },
    {
      "inputs": [],
      "name": "unlockTime",
      "outputs": [
        {
          "internalType": "uint256",
          "name": "",
          "type": "uint256"
        }
      ],
      "stateMutability": "view",
      "type": "function"
    },
    {
      "inputs": [],
      "name": "withdraw",
      "outputs": [],
      "stateMutability": "nonpayable",
      "type": "function"
    }
  ],
  "bytecode": "0x6080604052336000806101000a81548173ffffffffffffffffffffffffffffffffffffffff021916908373ffffffffffffffffffffffffffffffffffffffff16021790555060008054906101000a900473ffffffffffffffffffffffffffffffffffffffff1673ffffffffffffffffffffffffffffffffffffffff16600073ffffffffffffffffffffffffffffffffffffffff167f8be0079c531659141344cd1fd0a4f28419497f9722a3daafe3b4186f6b6457e060405160405180910390a333600260006101000a81548173ffffffffffffffffffffffffffffffffffffffff021916908373ffffffffffffffffffffffffffffffffffffffff1602179055506040518060400160405280600481526020017f696e69740000000000000000000000000000000000000000000000000000000081525060039081620001469190620003c7565b50620004ae565b600081519050919050565b7f4e487b7100000000000000000000000000000000000000000000000000000000600052604160045260246000fd5b7f4e487b7100000000000000000000000000000000000000000000000000000000600052602260045260246000fd5b60006002820490506001821680620001cf57607f821691505b602082108103620001e557620001e462000187565b5b50919050565b60008190508160005260206000209050919050565b60006020601f8301049050919050565b600082821b905092915050565b6000600883026200024f7fffffffffffffffffffffffffffffffffffffffffffffffffffffffffffffffff8262000210565b6200025b868362000210565b95508019841693508086168417925050509392505050565b6000819050919050565b6000819050919050565b6000620002a8620002a26200029c8462000273565b6200027d565b62000273565b9050919050565b6000819050919050565b620002c48362000287565b620002dc620002d382620002af565b8484546200021d565b825550505050565b600090565b620002f3620002e4565b62000300818484620002b9565b505050565b5b8181101562000328576200031c600082620002e9565b60018101905062000306565b5050565b601f82111562000377576200034181620001eb565b6200034c8462000200565b810160208510156200035c578190505b620003746200036b8562000200565b83018262000305565b50505b505050565b600082821c905092915050565b60006200039c600019846008026200037c565b1980831691505092915050565b6000620003b7838362000389565b9150826002028217905092915050565b620003d2826200014d565b67ffffffffffffffff811115620003ee57620003ed62000158565b5b620003fa8254620001b6565b620004078282856200032c565b600060209050601f8311600181146200043f57600084156200042a578287015190505b620004368582620003a9565b865550620004a6565b601f1984166200044f86620001eb565b60005b82811015620004795784890151825560018201915060208501945060208101905062000452565b8683101562000499578489015162000495601f89168262000389565b8355505b6001600288020188555050505b505050505050565b610ff180620004be6000396000f3fe608060405234801561001057600080fd5b50600436106100935760003560e01c80638da5cb5b116100665780638da5cb5b146100e85780638f32d59b14610106578063a413686214610124578063cfae321714610140578063f2fde38b1461015e57610093565b8063251c1aa3146100985780633ccfd60b146100b657806369cd61be146100c0578063715018a6146100de575b600080fd5b6100a061017a565b6040516100ad91906107ea565b60405180910390f35b6100be610180565b005b6100c8610290565b6040516100d59190610846565b60405180910390f35b6100e66102b6565b005b6100f0610385565b6040516100fd9190610882565b60405180910390f35b61010e6103ae565b60405161011b91906108b8565b60405180910390f35b61013e60048036038101906101399190610a2d565b610405565b005b6101486104c5565b6040516101559190610af5565b60405180910390f35b61017860048036038101906101739190610b43565b610557565b005b60015481565b6101a56040518060600160405280602b8152602001610f6e602b913960015442610574565b6101ad6103ae565b6101ec576040517f08c379a00000000000000000000000000000000000000000000000000000000081526004016101e390610bbc565b60405180910390fd5b7fbf2ed60bd5b5965d685680c01195c9514e4382e28e3a5a2d2d5244bf59411b93474260405161021d929190610bdc565b60405180910390a1600260009054906101000a900473ffffffffffffffffffffffffffffffffffffffff1673ffffffffffffffffffffffffffffffffffffffff166108fc479081150290604051600060405180830381858888f1935050505015801561028d573d6000803e3d6000fd5b50565b600260009054906101000a900473ffffffffffffffffffffffffffffffffffffffff1681565b6102be6103ae565b6102c757600080fd5b600073ffffffffffffffffffffffffffffffffffffffff1660008054906101000a900473ffffffffffffffffffffffffffffffffffffffff1673ffffffffffffffffffffffffffffffffffffffff167f8be0079c531659141344cd1fd0a4f28419497f9722a3daafe3b4186f6b6457e060405160405180910390a360008060006101000a81548173ffffffffffffffffffffffffffffffffffffffff021916908373ffffffffffffffffffffffffffffffffffffffff160217905550565b60008060009054906101000a900473ffffffffffffffffffffffffffffffffffffffff16905090565b60008060009054906101000a900473ffffffffffffffffffffffffffffffffffffffff1673ffffffffffffffffffffffffffffffffffffffff163373ffffffffffffffffffffffffffffffffffffffff1614905090565b6104b2604051806060016040528060238152602001610f99602391396003805461042e90610c34565b80601f016020809104026020016040519081016040528092919081815260200182805461045a90610c34565b80156104a75780601f1061047c576101008083540402835291602001916104a7565b820191906000526020600020905b81548152906001019060200180831161048a57829003601f168201915b505050505083610613565b80600390816104c19190610e11565b5050565b6060600380546104d490610c34565b80601f016020809104026020016040519081016040528092919081815260200182805461050090610c34565b801561054d5780601f106105225761010080835404028352916020019161054d565b820191906000526020600020905b81548152906001019060200180831161053057829003601f168201915b5050505050905090565b61055f6103ae565b61056857600080fd5b610571816106b2565b50565b61060e83838360405160240161058c93929190610ee3565b6040516020818303038152906040527fca47c4eb000000000000000000000000000000000000000000000000000000007bffffffffffffffffffffffffffffffffffffffffffffffffffffffff19166020820180517bffffffffffffffffffffffffffffffffffffffffffffffffffffffff83818316178352505050506107a8565b505050565b6106ad83838360405160240161062b93929190610f21565b6040516020818303038152906040527f2ced7cef000000000000000000000000000000000000000000000000000000007bffffffffffffffffffffffffffffffffffffffffffffffffffffffff19166020820180517bffffffffffffffffffffffffffffffffffffffffffffffffffffffff83818316178352505050506107a8565b505050565b600073ffffffffffffffffffffffffffffffffffffffff168173ffffffffffffffffffffffffffffffffffffffff16036106eb57600080fd5b8073ffffffffffffffffffffffffffffffffffffffff1660008054906101000a900473ffffffffffffffffffffffffffffffffffffffff1673ffffffffffffffffffffffffffffffffffffffff167f8be0079c531659141344cd1fd0a4f28419497f9722a3daafe3b4186f6b6457e060405160405180910390a3806000806101000a81548173ffffffffffffffffffffffffffffffffffffffff021916908373ffffffffffffffffffffffffffffffffffffffff16021790555050565b60008151905060006a636f6e736f6c652e6c6f679050602083016000808483855afa5050505050565b6000819050919050565b6107e4816107d1565b82525050565b60006020820190506107ff60008301846107db565b92915050565b600073ffffffffffffffffffffffffffffffffffffffff82169050919050565b600061083082610805565b9050919050565b61084081610825565b82525050565b600060208201905061085b6000830184610837565b92915050565b600061086c82610805565b9050919050565b61087c81610861565b82525050565b60006020820190506108976000830184610873565b92915050565b60008115159050919050565b6108b28161089d565b82525050565b60006020820190506108cd60008301846108a9565b92915050565b6000604051905090565b600080fd5b600080fd5b600080fd5b600080fd5b6000601f19601f8301169050919050565b7f4e487b7100000000000000000000000000000000000000000000000000000000600052604160045260246000fd5b61093a826108f1565b810181811067ffffffffffffffff8211171561095957610958610902565b5b80604052505050565b600061096c6108d3565b90506109788282610931565b919050565b600067ffffffffffffffff82111561099857610997610902565b5b6109a1826108f1565b9050602081019050919050565b82818337600083830152505050565b60006109d06109cb8461097d565b610962565b9050828152602081018484840111156109ec576109eb6108ec565b5b6109f78482856109ae565b509392505050565b600082601f830112610a1457610a136108e7565b5b8135610a248482602086016109bd565b91505092915050565b600060208284031215610a4357610a426108dd565b5b600082013567ffffffffffffffff811115610a6157610a606108e2565b5b610a6d848285016109ff565b91505092915050565b600081519050919050565b600082825260208201905092915050565b60005b83811015610ab0578082015181840152602081019050610a95565b60008484015250505050565b6000610ac782610a76565b610ad18185610a81565b9350610ae1818560208601610a92565b610aea816108f1565b840191505092915050565b60006020820190508181036000830152610b0f8184610abc565b905092915050565b610b2081610861565b8114610b2b57600080fd5b50565b600081359050610b3d81610b17565b92915050565b600060208284031215610b5957610b586108dd565b5b6000610b6784828501610b2e565b91505092915050565b7f596f75206172656e277420746865206f776e6572000000000000000000000000600082015250565b6000610ba6601483610a81565b9150610bb182610b70565b602082019050919050565b60006020820190508181036000830152610bd581610b99565b9050919050565b6000604082019050610bf160008301856107db565b610bfe60208301846107db565b9392505050565b7f4e487b7100000000000000000000000000000000000000000000000000000000600052602260045260246000fd5b60006002820490506001821680610c4c57607f821691505b602082108103610c5f57610c5e610c05565b5b50919050565b60008190508160005260206000209050919050565b60006020601f8301049050919050565b600082821b905092915050565b600060088302610cc77fffffffffffffffffffffffffffffffffffffffffffffffffffffffffffffffff82610c8a565b610cd18683610c8a565b95508019841693508086168417925050509392505050565b6000819050919050565b6000610d0e610d09610d04846107d1565b610ce9565b6107d1565b9050919050565b6000819050919050565b610d2883610cf3565b610d3c610d3482610d15565b848454610c97565b825550505050565b600090565b610d51610d44565b610d5c818484610d1f565b505050565b5b81811015610d8057610d75600082610d49565b600181019050610d62565b5050565b601f821115610dc557610d9681610c65565b610d9f84610c7a565b81016020851015610dae578190505b610dc2610dba85610c7a565b830182610d61565b50505b505050565b600082821c905092915050565b6000610de860001984600802610dca565b1980831691505092915050565b6000610e018383610dd7565b9150826002028217905092915050565b610e1a82610a76565b67ffffffffffffffff811115610e3357610e32610902565b5b610e3d8254610c34565b610e48828285610d84565b600060209050601f831160018114610e7b5760008415610e69578287015190505b610e738582610df5565b865550610edb565b601f198416610e8986610c65565b60005b82811015610eb157848901518255600182019150602085019450602081019050610e8c565b86831015610ece5784890151610eca601f891682610dd7565b8355505b6001600288020188555050505b505050505050565b60006060820190508181036000830152610efd8186610abc565b9050610f0c60208301856107db565b610f1960408301846107db565b949350505050565b60006060820190508181036000830152610f3b8186610abc565b90508181036020830152610f4f8185610abc565b90508181036040830152610f638184610abc565b905094935050505056fe556e6c6f636b2074696d6520697320256f20616e6420626c6f636b2074696d657374616d7020697320256f4368616e67696e67206772656574696e672066726f6d202725732720746f2027257327a2646970667358221220dc775b8b9e0060df04ce47e46133da4f4f69a6642d691c8e7c20f6b697fe27d864736f6c63430008110033",
  "linkReferences": {},
  "deployedLinkReferences": {}
}